{
  "contractName": "Organization",
  "abi": [
    {
      "constant": true,
      "inputs": [
        {
          "name": "",
          "type": "address"
        }
      ],
      "name": "members",
      "outputs": [
        {
          "name": "firstName",
          "type": "string"
        },
        {
          "name": "lastName",
          "type": "string"
        },
        {
          "name": "availableTokens",
          "type": "uint256"
        },
        {
          "name": "exists",
          "type": "bool"
        },
        {
          "name": "id",
          "type": "uint256"
        }
      ],
      "payable": false,
      "stateMutability": "view",
      "type": "function",
      "signature": "0x08ae4b0c"
    },
    {
      "constant": true,
      "inputs": [
        {
          "name": "",
          "type": "address"
        }
      ],
      "name": "delRequests",
      "outputs": [
        {
          "name": "exists",
          "type": "bool"
        },
        {
          "name": "id",
          "type": "uint256"
        },
        {
          "name": "acceptedCount",
          "type": "uint256"
        }
      ],
      "payable": false,
      "stateMutability": "view",
      "type": "function",
      "signature": "0x2caba0cf"
    },
    {
      "constant": true,
      "inputs": [
        {
          "name": "",
          "type": "bytes32"
        }
      ],
      "name": "proposals",
      "outputs": [
        {
          "name": "title",
          "type": "string"
        },
        {
          "name": "exists",
          "type": "bool"
        },
        {
          "name": "accepted",
          "type": "bool"
        },
        {
          "name": "id",
          "type": "uint256"
        },
        {
          "name": "acceptedCount",
          "type": "uint256"
        }
      ],
      "payable": false,
      "stateMutability": "view",
      "type": "function",
      "signature": "0x32ed5b12"
    },
    {
      "constant": true,
      "inputs": [
        {
          "name": "",
          "type": "uint256"
        }
      ],
      "name": "accessRequestsAddresses",
      "outputs": [
        {
          "name": "",
          "type": "address"
        }
      ],
      "payable": false,
      "stateMutability": "view",
      "type": "function",
      "signature": "0x39bb57d7"
    },
    {
      "constant": false,
      "inputs": [],
      "name": "kill",
      "outputs": [],
      "payable": false,
      "stateMutability": "nonpayable",
      "type": "function",
      "signature": "0x41c0e1b5"
    },
    {
      "constant": true,
      "inputs": [
        {
          "name": "",
          "type": "address"
        }
      ],
      "name": "accessRequests",
      "outputs": [
        {
          "name": "firstName",
          "type": "string"
        },
        {
          "name": "lastName",
          "type": "string"
        },
        {
          "name": "exists",
          "type": "bool"
        },
        {
          "name": "id",
          "type": "uint256"
        },
        {
          "name": "acceptedcount",
          "type": "uint256"
        }
      ],
      "payable": false,
      "stateMutability": "view",
      "type": "function",
      "signature": "0x4a9a2309"
    },
    {
      "constant": true,
      "inputs": [
        {
          "name": "",
          "type": "uint256"
        }
      ],
      "name": "membersAddresses",
      "outputs": [
        {
          "name": "",
          "type": "address"
        }
      ],
      "payable": false,
      "stateMutability": "view",
      "type": "function",
      "signature": "0x5ee5a3c6"
    },
    {
      "constant": true,
      "inputs": [
        {
          "name": "",
          "type": "uint256"
        }
      ],
      "name": "delRequestsAddresses",
      "outputs": [
        {
          "name": "",
          "type": "address"
        }
      ],
      "payable": false,
      "stateMutability": "view",
      "type": "function",
      "signature": "0xa649cead"
    },
    {
      "constant": true,
      "inputs": [
        {
          "name": "",
          "type": "uint256"
        }
      ],
      "name": "proposalsHashes",
      "outputs": [
        {
          "name": "",
          "type": "bytes32"
        }
      ],
      "payable": false,
      "stateMutability": "view",
      "type": "function",
      "signature": "0xba345b99"
    },
    {
      "inputs": [
        {
          "name": "_name",
          "type": "string"
        },
        {
          "name": "_id",
          "type": "string"
        },
        {
          "name": "_website",
          "type": "string"
        }
      ],
      "payable": false,
      "stateMutability": "nonpayable",
      "type": "constructor",
      "signature": "constructor"
    },
    {
      "anonymous": false,
      "inputs": [
        {
          "indexed": false,
          "name": "requester",
          "type": "address"
        },
        {
          "indexed": false,
          "name": "firstName",
          "type": "string"
        },
        {
          "indexed": false,
          "name": "lastName",
          "type": "string"
        }
      ],
      "name": "NewMembershipRequest",
      "type": "event",
      "signature": "0xdcef50bda69574c489bf05e08a4f3bd85650e1f4cad86f467986c9af181bbb36"
    },
    {
      "anonymous": false,
      "inputs": [
        {
          "indexed": false,
          "name": "memberAddress",
          "type": "address"
        },
        {
          "indexed": false,
          "name": "firstName",
          "type": "string"
        },
        {
          "indexed": false,
          "name": "lastName",
          "type": "string"
        }
      ],
      "name": "NewDeletionRequest",
      "type": "event",
      "signature": "0xd93c0973bb5a318b6420af16983058400e354fc6c64468468ea3ae881abe3fab"
    },
    {
      "anonymous": false,
      "inputs": [
        {
          "indexed": true,
          "name": "voter",
          "type": "address"
        },
        {
          "indexed": false,
          "name": "requester",
          "type": "address"
        }
      ],
      "name": "VotedForNewMember",
      "type": "event",
      "signature": "0x54d4f2856fc6df81f59ebd4f19f0811355727165b409c8175dacff78292f7c59"
    },
    {
      "anonymous": false,
      "inputs": [
        {
          "indexed": true,
          "name": "voter",
          "type": "address"
        },
        {
          "indexed": false,
          "name": "memberAddress",
          "type": "address"
        }
      ],
      "name": "VotedForDelMember",
      "type": "event",
      "signature": "0xe4c4fc0bd541d96b22a84cd21f1e3a0fbf14829af041032c336bc26c7dda5417"
    },
    {
      "anonymous": false,
      "inputs": [
        {
          "indexed": false,
          "name": "requester",
          "type": "address"
        },
        {
          "indexed": false,
          "name": "firstName",
          "type": "string"
        },
        {
          "indexed": false,
          "name": "lastName",
          "type": "string"
        }
      ],
      "name": "NewMemberAccepted",
      "type": "event",
      "signature": "0xe017e2c3793323212ee79ef8d3c6d3867658ba8f7330250a641f1d287ffb7e7a"
    },
    {
      "anonymous": false,
      "inputs": [
        {
          "indexed": false,
          "name": "memberAddress",
          "type": "address"
        },
        {
          "indexed": false,
          "name": "firstName",
          "type": "string"
        },
        {
          "indexed": false,
          "name": "lastName",
          "type": "string"
        }
      ],
      "name": "MemberDeleted",
      "type": "event",
      "signature": "0x95e667267b4832338f972c1aade134d5c768c1d5b3fdd5320892fe6531b530f6"
    },
    {
      "anonymous": false,
      "inputs": [
        {
          "indexed": false,
          "name": "hash",
          "type": "bytes32"
        },
        {
          "indexed": false,
          "name": "title",
          "type": "string"
        }
      ],
      "name": "NewProposalSubmitted",
      "type": "event",
      "signature": "0x3ab1aeb7f20752e87e53f0c057ed0c2b249097f3bb483dd38d6d2f0fd822e856"
    },
    {
      "anonymous": false,
      "inputs": [
        {
          "indexed": false,
          "name": "hash",
          "type": "bytes32"
        },
        {
          "indexed": false,
          "name": "title",
          "type": "string"
        },
        {
          "indexed": true,
          "name": "voter",
          "type": "address"
        }
      ],
      "name": "VotedForProposal",
      "type": "event",
      "signature": "0x6789e1d3cd28f5be20d450f1784c8fb8bc49e561f86171b53eda79acd91afb09"
    },
    {
      "anonymous": false,
      "inputs": [
        {
          "indexed": false,
          "name": "hash",
          "type": "bytes32"
        },
        {
          "indexed": false,
          "name": "title",
          "type": "string"
        }
      ],
      "name": "ProposalAccepted",
      "type": "event",
      "signature": "0x6a9542be0f73883c753d9dc05f547f73a500c44dfe354c5692fa6259fd992b31"
    },
    {
      "anonymous": false,
      "inputs": [
        {
          "indexed": false,
          "name": "hash",
          "type": "bytes32"
        },
        {
          "indexed": false,
          "name": "title",
          "type": "string"
        }
      ],
      "name": "ProposalDeleted",
      "type": "event",
      "signature": "0x8f4d72e75b1be64c43b9a0bcd805325a6136bc09c7c40e19037c129195bbfaae"
    },
    {
      "constant": false,
      "inputs": [
        {
          "name": "_firstName",
          "type": "string"
        },
        {
          "name": "_lastName",
          "type": "string"
        }
      ],
      "name": "requestMembership",
      "outputs": [],
      "payable": false,
      "stateMutability": "nonpayable",
      "type": "function",
      "signature": "0x1a5a78a5"
    },
    {
      "constant": false,
      "inputs": [
        {
          "name": "_address",
          "type": "address"
        }
      ],
      "name": "requestDeletion",
      "outputs": [],
      "payable": false,
      "stateMutability": "nonpayable",
      "type": "function",
      "signature": "0x04013b1e"
    },
    {
      "constant": false,
      "inputs": [
        {
          "name": "title",
          "type": "string"
        }
      ],
      "name": "submitProposal",
      "outputs": [],
      "payable": false,
      "stateMutability": "nonpayable",
      "type": "function",
      "signature": "0x373d6d5e"
    },
    {
      "constant": false,
      "inputs": [
        {
          "name": "_requester",
          "type": "address"
        }
      ],
      "name": "acceptNewMembership",
      "outputs": [],
      "payable": false,
      "stateMutability": "nonpayable",
      "type": "function",
      "signature": "0x2f2ab9df"
    },
    {
      "constant": false,
      "inputs": [
        {
          "name": "_memberAddress",
          "type": "address"
        }
      ],
      "name": "acceptMemberDeletion",
      "outputs": [],
      "payable": false,
      "stateMutability": "nonpayable",
      "type": "function",
      "signature": "0x1ee67485"
    },
    {
      "constant": false,
      "inputs": [
        {
          "name": "hash",
          "type": "bytes32"
        }
      ],
      "name": "acceptProposal",
      "outputs": [],
      "payable": false,
      "stateMutability": "nonpayable",
      "type": "function",
      "signature": "0x9d079b18"
    },
    {
      "constant": true,
      "inputs": [],
      "name": "getOrganizationInfo",
      "outputs": [
        {
          "name": "orgName",
          "type": "string"
        },
        {
          "name": "orgId",
          "type": "string"
        },
        {
          "name": "orgWebsite",
          "type": "string"
        },
        {
          "name": "orgMembersCount",
          "type": "uint256"
        }
      ],
      "payable": false,
      "stateMutability": "view",
      "type": "function",
      "signature": "0xe894d0a2"
    },
    {
      "constant": true,
      "inputs": [],
      "name": "getMembersCount",
      "outputs": [
        {
          "name": "",
          "type": "uint256"
        }
      ],
      "payable": false,
      "stateMutability": "view",
      "type": "function",
      "signature": "0x09772f8f"
    },
    {
      "constant": true,
      "inputs": [],
      "name": "getAccessRequestsCount",
      "outputs": [
        {
          "name": "",
          "type": "uint256"
        }
      ],
      "payable": false,
      "stateMutability": "view",
      "type": "function",
      "signature": "0x9a45b6d8"
    }
  ],
  "bytecode": "0x60806040523480156200001157600080fd5b5060405162002b1738038062002b17833981018060405260608110156200003757600080fd5b8101908080516401000000008111156200005057600080fd5b820160208101848111156200006457600080fd5b81516401000000008111828201871017156200007f57600080fd5b505092919060200180516401000000008111156200009c57600080fd5b82016020810184811115620000b057600080fd5b8151640100000000811182820187101715620000cb57600080fd5b50509291906020018051640100000000811115620000e857600080fd5b82016020810184811115620000fc57600080fd5b81516401000000008111828201871017156200011757600080fd5b505060008054600160a060020a0319163317905585519093506200014592506001915060208601906200043f565b5081516200015b9060029060208501906200043f565b508051620001719060039060208401906200043f565b50600062000181600582620004c4565b506200018c620004f0565b506040805160e081018252600560a082018181527f61646d696e00000000000000000000000000000000000000000000000000000060c084018190529083528351808501855291825260208281019190915282015260019181019190915260006060820181905260808201526200020d813364010000000062000218810204565b505050505062000542565b8151600160a060020a03821660009081526004602090815260408220835192936200024793919201906200043f565b50602080840151600160a060020a0384166000908152600483526040902081516200027c93600190920192909101906200043f565b50604083810151600160a060020a0384166000818152600460208181529185902060038101805460ff19169515159590951790945560646002808601919091556005805460018181019092557f036b6384b5eca791c62761152d0c79bb0604c104a5fb6f4eb0703f3154bb3db081018054600160a060020a031916871790559286019290925585519384526060928401838152855460001961010082861615020116919091049284018390527fe017e2c3793323212ee79ef8d3c6d3867658ba8f7330250a641f1d287ffb7e7a958895949285019390830190608084019086908015620003ad5780601f106200038157610100808354040283529160200191620003ad565b820191906000526020600020905b8154815290600101906020018083116200038f57829003601f168201915b5050838103825284546002600019610100600184161502019091160480825260209091019085908015620004255780601f10620003f95761010080835404028352916020019162000425565b820191906000526020600020905b8154815290600101906020018083116200040757829003601f168201915b50509550505050505060405180910390a150600192915050565b828054600181600116156101000203166002900490600052602060002090601f016020900481019282601f106200048257805160ff1916838001178555620004b2565b82800160010185558215620004b2579182015b82811115620004b257825182559160200191906001019062000495565b50620004c092915062000522565b5090565b815481835581811115620004eb57600083815260209020620004eb91810190830162000522565b505050565b60a060405190810160405280606081526020016060815260200160001515815260200160008152602001600081525090565b6200053f91905b80821115620004c0576000815560010162000529565b90565b6125c580620005526000396000f3fe6080604052600436106100fb5763ffffffff7c010000000000000000000000000000000000000000000000000000000060003504166304013b1e811461010057806308ae4b0c1461013557806309772f8f1461025c5780631a5a78a5146102835780631ee67485146103bd5780632caba0cf146103f05780632f2ab9df1461044357806332ed5b1214610476578063373d6d5e1461053c57806339bb57d7146105ef57806341c0e1b5146106355780634a9a23091461064a5780635ee5a3c6146106d35780639a45b6d8146106fd5780639d079b1814610712578063a649cead1461073c578063ba345b9914610766578063e894d0a214610790575b600080fd5b34801561010c57600080fd5b506101336004803603602081101561012357600080fd5b5035600160a060020a03166108af565b005b34801561014157600080fd5b506101686004803603602081101561015857600080fd5b5035600160a060020a0316610a62565b6040805190810184905282151560608201526080810182905260a08082528651908201528551819060208083019160c08401918a019080838360005b838110156101bc5781810151838201526020016101a4565b50505050905090810190601f1680156101e95780820380516001836020036101000a031916815260200191505b50838103825287518152875160209182019189019080838360005b8381101561021c578181015183820152602001610204565b50505050905090810190601f1680156102495780820380516001836020036101000a031916815260200191505b5097505050505050505060405180910390f35b34801561026857600080fd5b50610271610bb9565b60408051918252519081900360200190f35b34801561028f57600080fd5b50610133600480360360408110156102a657600080fd5b8101906020810181356401000000008111156102c157600080fd5b8201836020820111156102d357600080fd5b803590602001918460018302840111640100000000831117156102f557600080fd5b91908080601f016020809104026020016040519081016040528093929190818152602001838380828437600092019190915250929594936020810193503591505064010000000081111561034857600080fd5b82018360208201111561035a57600080fd5b8035906020019184600183028401116401000000008311171561037c57600080fd5b91908080601f016020809104026020016040519081016040528093929190818152602001838380828437600092019190915250929550610bc0945050505050565b3480156103c957600080fd5b50610133600480360360208110156103e057600080fd5b5035600160a060020a0316610eb0565b3480156103fc57600080fd5b506104236004803603602081101561041357600080fd5b5035600160a060020a03166111c8565b604080519315158452602084019290925282820152519081900360600190f35b34801561044f57600080fd5b506101336004803603602081101561046657600080fd5b5035600160a060020a03166111ed565b34801561048257600080fd5b506104a06004803603602081101561049957600080fd5b503561167a565b60405180806020018615151515815260200185151515158152602001848152602001838152602001828103825287818151815260200191508051906020019080838360005b838110156104fd5781810151838201526020016104e5565b50505050905090810190601f16801561052a5780820380516001836020036101000a031916815260200191505b50965050505050505060405180910390f35b34801561054857600080fd5b506101336004803603602081101561055f57600080fd5b81019060208101813564010000000081111561057a57600080fd5b82018360208201111561058c57600080fd5b803590602001918460018302840111640100000000831117156105ae57600080fd5b91908080601f01602080910402602001604051908101604052809392919081815260200183838082843760009201919091525092955061173a945050505050565b3480156105fb57600080fd5b506106196004803603602081101561061257600080fd5b50356119b9565b60408051600160a060020a039092168252519081900360200190f35b34801561064157600080fd5b506101336119e1565b34801561065657600080fd5b5061067d6004803603602081101561066d57600080fd5b5035600160a060020a03166119f9565b6040518080602001806020018615151515815260200185815260200184815260200183810383528881815181526020019150805190602001908083836000838110156101bc5781810151838201526020016101a4565b3480156106df57600080fd5b50610619600480360360208110156106f657600080fd5b5035611b50565b34801561070957600080fd5b50610271611b5e565b34801561071e57600080fd5b506101336004803603602081101561073557600080fd5b5035611b64565b34801561074857600080fd5b506106196004803603602081101561075f57600080fd5b5035611e8b565b34801561077257600080fd5b506102716004803603602081101561078957600080fd5b5035611e99565b34801561079c57600080fd5b506107a5611eb8565b60405180806020018060200180602001858152602001848103845288818151815260200191508051906020019080838360005b838110156107f05781810151838201526020016107d8565b50505050905090810190601f16801561081d5780820380516001836020036101000a031916815260200191505b50848103835287518152875160209182019189019080838360005b83811015610850578181015183820152602001610838565b50505050905090810190601f16801561087d5780820380516001836020036101000a031916815260200191505b50848103825286518152865160209182019188019080838360008381101561021c578181015183820152602001610204565b600160a060020a03811660009081526004602052604090206003015460ff16151561094a576040805160e560020a62461bcd02815260206004820152603c60248201527f54686973206164647265737320646f6573206e6f7420726570726573656e742060448201527f61206d656d626572206f6620746865206f7267616e697a6174696f6e00000000606482015290519081900360840190fd5b600160a060020a03811660009081526008602052604090205460ff1615156109e2576040805160e560020a62461bcd02815260206004820152603560248201527f4120726571756573742068617320616c7265616479206265656e206d6164652060448201527f746f2072656d6f76652074686973206d656d6265720000000000000000000000606482015290519081900360840190fd5b600160a060020a03166000818152600860205260408120600381018290556009805460018181019092557f6e1540171b6c0c960b71a7020d9f60077f6af931a8bbf590da0223dacf75c7af8101805473ffffffffffffffffffffffffffffffffffffffff1916861790559390925281810192909255815460ff1916179055565b60046020908152600091825260409182902080548351601f60026000196101006001861615020190931692909204918201849004840281018401909452808452909291839190830182828015610af95780601f10610ace57610100808354040283529160200191610af9565b820191906000526020600020905b815481529060010190602001808311610adc57829003601f168201915b505050505090806001018054600181600116156101000203166002900480601f016020809104026020016040519081016040528092919081815260200182805460018160011615610100020316600290048015610b975780601f10610b6c57610100808354040283529160200191610b97565b820191906000526020600020905b815481529060010190602001808311610b7a57829003601f168201915b50505050600283015460038401546004909401549293909260ff909116915085565b6005545b90565b3360009081526006602052604090206002015460ff1615610c51576040805160e560020a62461bcd02815260206004820152603060248201527f4120726571756573742068617320616c7265616479206265656e206d6164652060448201527f666f722074686973206164647265737300000000000000000000000000000000606482015290519081900360840190fd5b3360009081526004602052604090206003015460ff161515610ce3576040805160e560020a62461bcd02815260206004820152603160248201527f54686973207573657220697320616c72656164792061206d656d626572206f6660448201527f20746865206f7267616e697a6174696f6e000000000000000000000000000000606482015290519081900360840190fd5b3360009081526006602090815260409091208351610d03928501906124a1565b503360009081526006602090815260409091208251610d2a926001909201918401906124a1565b5033600081815260066020908152604080832060028101805460ff19166001908117909155600582018590556007805491820190557fa66cc928b5edb82af9bd49922954155ab7b0942694bea4ce44661d9a8736c6888101805473ffffffffffffffffffffffffffffffffffffffff1916871790556003909101558051848152606081840181815288519183019190915287517fdcef50bda69574c489bf05e08a4f3bd85650e1f4cad86f467986c9af181bbb369695899589958501926080860192918801918190849084905b83811015610e0f578181015183820152602001610df7565b50505050905090810190601f168015610e3c5780820380516001836020036101000a031916815260200191505b50838103825284518152845160209182019186019080838360005b83811015610e6f578181015183820152602001610e57565b50505050905090810190601f168015610e9c5780820380516001836020036101000a031916815260200191505b509550505050505060405180910390a15050565b3360009081526004602052604090206003015460ff161515610f0a576040805160e560020a62461bcd028152602060048201526017602482015260008051602061257a833981519152604482015290519081900360640190fd5b600160a060020a03811660009081526008602052604090205460ff161515610fa2576040805160e560020a62461bcd02815260206004820152602f60248201527f4e6f20726571756573742068617665206265656e206d61646520746f2072656d60448201527f6f76652074686973206d656d6265720000000000000000000000000000000000606482015290519081900360840190fd5b600160a060020a038116600090815260086020908152604080832033845260020190915290205460ff1615611047576040805160e560020a62461bcd02815260206004820152602c60248201527f596f75206861766520616c726561647920766f74656420746f2072656d6f766560448201527f2074686973206d656d6265720000000000000000000000000000000000000000606482015290519081900360840190fd5b600160a060020a038116600081815260086020818152604080842033808652600282018452828620805460ff191660019081179091559587905293835260030180549094019093558251938452915190927fe4c4fc0bd541d96b22a84cd21f1e3a0fbf14829af041032c336bc26c7dda541792908290030190a2600554600160a060020a038216600090815260086020526040902060030154600290910410156111c5576110f481612084565b151561114a576040805160e560020a62461bcd02815260206004820152601a60248201527f4572726f72207768656e2064656c6574696e67206d656d626572000000000000604482015290519081900360640190fd5b600160a060020a03811660009081526008602052604090206001015460098054909190811061117557fe5b60009182526020808320909101805473ffffffffffffffffffffffffffffffffffffffff19169055600160a060020a03831682526008905260408120805460ff1916815560018101829055600301555b50565b60086020526000908152604090208054600182015460039092015460ff909116919083565b3360009081526004602052604090206003015460ff161515611247576040805160e560020a62461bcd028152602060048201526017602482015260008051602061257a833981519152604482015290519081900360640190fd5b600160a060020a03811660009081526006602052604090206002015460ff1615156112e2576040805160e560020a62461bcd02815260206004820152602a60248201527f4e6f20726571756573742068617665206265656e206d61646520666f7220746860448201527f6973206164647265737300000000000000000000000000000000000000000000606482015290519081900360840190fd5b600160a060020a038116600090815260066020908152604080832033845260040190915290205460ff1615611361576040805160e560020a62461bcd02815260206004820152601460248201527f596f752063616e277420766f7465207477696365000000000000000000000000604482015290519081900360640190fd5b600160a060020a038116600081815260066020818152604080842033808652600482018452828620805460ff191660019081179091559587905293835260050180549094019093558251938452915190927f54d4f2856fc6df81f59ebd4f19f0811355727165b409c8175dacff78292f7c5992908290030190a2600554600290600160a060020a03831660009081526006602052604090206005015491900410156111c557600160a060020a0381166000908152600660209081526040918290208251815460026001821615610100026000190190911604601f8101849004909302810160c090810190945260a0810183815261158594919384928491908401828280156114b05780601f10611485576101008083540402835291602001916114b0565b820191906000526020600020905b81548152906001019060200180831161149357829003601f168201915b50505050508152602001600182018054600181600116156101000203166002900480601f0160208091040260200160405190810160405280929190818152602001828054600181600116156101000203166002900480156115525780601f1061152757610100808354040283529160200191611552565b820191906000526020600020905b81548152906001019060200180831161153557829003601f168201915b5050509183525050600282015460ff16151560208201526003820154604082015260059091015460609091015282612279565b15156115db576040805160e560020a62461bcd02815260206004820181905260248201527f4572726f72207768696c6520696e73657274696e67206e6577206d656d626572604482015290519081900360640190fd5b600160a060020a03811660009081526006602052604090206003015460078054909190811061160657fe5b60009182526020808320909101805473ffffffffffffffffffffffffffffffffffffffff19169055600160a060020a038316825260069052604081209061164d828261251f565b61165b60018301600061251f565b5060028101805460ff1916905560006003820181905560059091015550565b600a6020908152600091825260409182902080548351601f600260001961010060018616150201909316929092049182018490048402810184019094528084529092918391908301828280156117115780601f106116e657610100808354040283529160200191611711565b820191906000526020600020905b8154815290600101906020018083116116f457829003601f168201915b50505060018401546002850154600490950154939460ff80831695610100909304169350915085565b3360009081526004602052604090206003015460ff161515611794576040805160e560020a62461bcd028152602060048201526017602482015260008051602061257a833981519152604482015290519081900360640190fd5b6000816040516020018082805190602001908083835b602083106117c95780518252601f1990920191602091820191016117aa565b51815160209384036101000a60001901801990921691161790526040805192909401828103601f1901835284528151918101919091206000818152600a909252929020600101549194505060ff161591506118969050576040805160e560020a62461bcd02815260206004820152602860248201527f546869732070726f706f73616c2068617320616c7265616479206265656e207360448201527f75626d6974746564000000000000000000000000000000000000000000000000606482015290519081900360840190fd5b6000818152600a6020908152604090912083516118b5928501906124a1565b506000818152600a602090815260408083206001808201805460ff19168217905560048201805482019055600b805491820190557f0175b7a638427703f0dbe7bb9bbf987a2551717b34e79f33b5b1008d1fa01db98101869055600290910155805184815280830182815286519282019290925285517f3ab1aeb7f20752e87e53f0c057ed0c2b249097f3bb483dd38d6d2f0fd822e8569486948894926060850192918601918190849084905b8381101561197a578181015183820152602001611962565b50505050905090810190601f1680156119a75780820380516001836020036101000a031916815260200191505b50935050505060405180910390a15050565b60078054829081106119c757fe5b600091825260209091200154600160a060020a0316905081565b600054600160a060020a03163314156119f75733ff5b565b60066020908152600091825260409182902080548351601f60026000196101006001861615020190931692909204918201849004840281018401909452808452909291839190830182828015611a905780601f10611a6557610100808354040283529160200191611a90565b820191906000526020600020905b815481529060010190602001808311611a7357829003601f168201915b505050505090806001018054600181600116156101000203166002900480601f016020809104026020016040519081016040528092919081815260200182805460018160011615610100020316600290048015611b2e5780601f10611b0357610100808354040283529160200191611b2e565b820191906000526020600020905b815481529060010190602001808311611b1157829003601f168201915b5050505060028301546003840154600590940154929360ff9091169290915085565b60058054829081106119c757fe5b60075490565b3360009081526004602052604090206003015460ff161515611bbe576040805160e560020a62461bcd028152602060048201526017602482015260008051602061257a833981519152604482015290519081900360640190fd5b6000818152600a602052604090206001015460ff1615611c28576040805160e560020a62461bcd02815260206004820152601c60248201527f546869732070726f706f73616c20646f6573206e6f7420657869737400000000604482015290519081900360640190fd5b6000818152600a6020908152604080832033845260030190915290205460ff1615611c9d576040805160e560020a62461bcd02815260206004820152601460248201527f596f752063616e277420766f7465207477696365000000000000000000000000604482015290519081900360640190fd5b6000818152600a6020818152604080842033808652600382018452828620805460ff191660019081179091559587905293835260048101805486019055815186815292830182815281546002600019978216156101000297909701169590950491830182905292937f6789e1d3cd28f5be20d450f1784c8fb8bc49e561f86171b53eda79acd91afb099386939092909190606083019084908015611d825780601f10611d5757610100808354040283529160200191611d82565b820191906000526020600020905b815481529060010190602001808311611d6557829003601f168201915b5050935050505060405180910390a26005546000828152600a6020526040902060040154600290910410156111c5576000818152600a60209081526040918290206001818101805461ff0019166101009081179091558451868152938401858152835460026000199482161590930293909301909216049383018490527f6a9542be0f73883c753d9dc05f547f73a500c44dfe354c5692fa6259fd992b319385939190606083019084908015611e795780601f10611e4e57610100808354040283529160200191611e79565b820191906000526020600020905b815481529060010190602001808311611e5c57829003601f168201915b5050935050505060405180910390a150565b60098054829081106119c757fe5b600b805482908110611ea757fe5b600091825260209091200154905081565b60608060606000600160026003611ecd610bb9565b8354604080516020601f60026000196101006001881615020190951694909404938401819004810282018101909252828152918691830182828015611f535780601f10611f2857610100808354040283529160200191611f53565b820191906000526020600020905b815481529060010190602001808311611f3657829003601f168201915b5050865460408051602060026001851615610100026000190190941693909304601f810184900484028201840190925281815295995088945092508401905082828015611fe15780601f10611fb657610100808354040283529160200191611fe1565b820191906000526020600020905b815481529060010190602001808311611fc457829003601f168201915b5050855460408051602060026001851615610100026000190190941693909304601f81018490048402820184019092528181529598508794509250840190508282801561206f5780601f106120445761010080835404028352916020019161206f565b820191906000526020600020905b81548152906001019060200180831161205257829003601f168201915b50505050509150935093509350935090919293565b600160a060020a0381166000818152600460209081526040808320815194855260609285018381528154600260018083161561010002600019019092160494870185905294957f95e667267b4832338f972c1aade134d5c768c1d5b3fdd5320892fe6531b530f69588959394908501939192919083019060808401908690801561214f5780601f106121245761010080835404028352916020019161214f565b820191906000526020600020905b81548152906001019060200180831161213257829003601f168201915b50508381038252845460026000196101006001841615020190911604808252602090910190859080156121c35780601f10612198576101008083540402835291602001916121c3565b820191906000526020600020905b8154815290600101906020018083116121a657829003601f168201915b50509550505050505060405180910390a1600160a060020a0382166000908152600460208190526040909120015460058054909190811061220057fe5b60009182526020808320909101805473ffffffffffffffffffffffffffffffffffffffff19169055600160a060020a0384168252600490526040812090612247828261251f565b61225560018301600061251f565b5060006002820181905560038201805460ff19169055600490910155506001919050565b8151600160a060020a03821660009081526004602090815260408220835192936122a693919201906124a1565b50602080840151600160a060020a0384166000908152600483526040902081516122d993600190920192909101906124a1565b50604083810151600160a060020a0384166000818152600460208181529185902060038101805460ff19169515159590951790945560646002808601919091556005805460018181019092557f036b6384b5eca791c62761152d0c79bb0604c104a5fb6f4eb0703f3154bb3db08101805473ffffffffffffffffffffffffffffffffffffffff1916871790559286019290925585519384526060928401838152855460001961010082861615020116919091049284018390527fe017e2c3793323212ee79ef8d3c6d3867658ba8f7330250a641f1d287ffb7e7a9588959492850193908301906080840190869080156124135780601f106123e857610100808354040283529160200191612413565b820191906000526020600020905b8154815290600101906020018083116123f657829003601f168201915b50508381038252845460026000196101006001841615020190911604808252602090910190859080156124875780601f1061245c57610100808354040283529160200191612487565b820191906000526020600020905b81548152906001019060200180831161246a57829003601f168201915b50509550505050505060405180910390a150600192915050565b828054600181600116156101000203166002900490600052602060002090601f016020900481019282601f106124e257805160ff191683800117855561250f565b8280016001018555821561250f579182015b8281111561250f5782518255916020019190600101906124f4565b5061251b92915061255f565b5090565b50805460018160011615610100020316600290046000825580601f1061254557506111c5565b601f0160209004906000526020600020908101906111c591905b610bbd91905b8082111561251b576000815560010161256556fe41646472657373206973206e6f742061206d656d626572000000000000000000a165627a7a72305820920b022c142ee6f5fc0285e0885aed308bfecfe9681af44ed056a6d9c45fa6f40029",
  "source": "pragma solidity >=0.4.22 <0.6.0;\nimport \"./Mortal.sol\";\n\ncontract Organization is Mortal {\n    // A member of the organization\n    struct Member {\n        string firstName;\n        string lastName;\n        uint availableTokens;\n        bool exists;\n        uint id;\n    }\n\n    // A request made to add a new member to the organization\n    struct AccessRequest {\n        string firstName;\n        string lastName;\n        bool exists;\n        uint id;\n        mapping(address => bool) hasVoted; // You wont fool us ><\n        uint acceptedcount; // A counter to avoid a FUCKING BIG GAZ CONSUMING for loop to retrieve the %\n    }\n\n    // A request to remove a member from the organization\n    struct DeletionRequest {\n        bool exists;\n        uint id;\n        mapping(address => bool) hasVoted;\n        uint acceptedCount;\n    }\n\n    // A decision to be voted by the members. A proposal is identified by its hash.\n    struct Proposal {\n        string title;\n        bool exists;\n        bool accepted;\n        uint id;\n        mapping(address => bool) hasVoted;\n        uint acceptedCount;\n    }\n\n    // Organization informations\n    string name;\n    string id;\n    string website;\n\n    // All the members of the org\n    mapping(address => Member) public members;\n    address[] public membersAddresses;\n\n    // All the membership requests\n    mapping(address => AccessRequest) public accessRequests;\n    address[] public accessRequestsAddresses;\n\n    // All the deletion requests\n    mapping(address => DeletionRequest) public delRequests;\n    address[] public delRequestsAddresses;\n\n    // All the proposals\n    mapping(bytes32 => Proposal) public proposals;\n    bytes32[] public proposalsHashes;\n\n    event NewMembershipRequest(address requester, string firstName, string lastName);\n    event NewDeletionRequest(address memberAddress, string firstName, string lastName);\n    event VotedForNewMember(address indexed voter, address requester);\n    event VotedForDelMember(address indexed voter, address memberAddress); // The decision will be true, or won't be\n    event NewMemberAccepted(address requester, string firstName, string lastName);\n    event MemberDeleted(address memberAddress, string firstName, string lastName);\n\n    event NewProposalSubmitted(bytes32 hash, string title);\n    event VotedForProposal(bytes32 hash, string title, address indexed voter);\n    event ProposalAccepted(bytes32 hash, string title);\n    event ProposalDeleted(bytes32 hash, string title);\n\n    modifier onlyMember {\n        require(members[msg.sender].exists, \"Address is not a member\");\n        _;\n    }\n\n    // Init organization\n    constructor(\n        string memory _name,\n        string memory _id,\n        string memory _website) public \n    {\n        name = _name;\n        id = _id;\n        website = _website;\n        membersAddresses.length = 0;\n        \n        // The owner is the first member\n        AccessRequest memory admin = AccessRequest({\n            firstName: \"admin\",\n            lastName: \"admin\",\n            exists: true,\n            id: 0,\n            acceptedcount: 0\n        });\n        _addMember(admin, msg.sender);\n    }\n\n    // Adds a member to the list given a membership request\n    function _addMember(AccessRequest memory _request, address _address) private returns (bool) {\n        members[_address].firstName = _request.firstName;\n        members[_address].lastName = _request.lastName;\n        members[_address].exists = _request.exists;\n        members[_address].availableTokens = 100;\n        members[_address].id = membersAddresses.push(_address) - 1; // Length - 1 = key\n        \n        emit NewMemberAccepted(_address, members[_address].firstName, members[_address].lastName);\n\n        return true;\n    }\n\n    // Removes a member from the organization\n    function _delMember(address _address) private returns (bool) {\n        emit MemberDeleted(_address, members[_address].firstName, members[_address].lastName);\n        delete membersAddresses[members[_address].id];\n        delete members[_address];\n\n        return true;\n    }\n\n    // Adds a proposal\n    function _addProposal(bytes32 hash, string memory title) private returns (bool) {\n        proposals[hash].title = title;\n        proposals[hash].accepted = false;\n        proposals[hash].exists = true;\n        emit NewProposalSubmitted(hash, title);\n\n        return true;\n    }\n\n    // Removes a proposal\n    function _removeProposal(bytes32 hash) private returns (bool) {\n        emit ProposalDeleted(hash, proposals[hash].title);\n        delete proposalsHashes[proposals[hash].id];\n        delete proposals[hash];\n    }\n\n    // Request a membership for a given address, name, and surname\n    function requestMembership (string memory _firstName, string memory _lastName) public {\n        require(!accessRequests[msg.sender].exists, \"A request has already been made for this address\");\n        require(members[msg.sender].exists, \"This user is already a member of the organization\");\n\n        // Creation of a membership request for this \"person\"\n        accessRequests[msg.sender].firstName = _firstName;\n        accessRequests[msg.sender].lastName = _lastName;\n        accessRequests[msg.sender].exists = true;\n        accessRequests[msg.sender].acceptedcount = 0;\n        accessRequests[msg.sender].id = accessRequestsAddresses.push(msg.sender) - 1;\n\n        emit NewMembershipRequest(msg.sender, _firstName, _lastName);\n    }\n\n    function requestDeletion (address _address) public {\n        require(members[_address].exists, \"This address does not represent a member of the organization\");\n        require(delRequests[_address].exists, \"A request has already been made to remove this member\");\n\n        delRequests[_address].acceptedCount = 0;\n        delRequests[_address].id = delRequestsAddresses.push(_address) - 1;\n        delRequests[_address].exists = true;\n    }\n\n    function submitProposal (string memory title) public onlyMember {\n        bytes32 hash = keccak256(abi.encodePacked(title));\n        require(!proposals[hash].exists, \"This proposal has already been submitted\");\n        proposals[hash].title = title;\n        proposals[hash].exists = true;\n        proposals[hash].hasVoted[msg.sender];\n        ++proposals[hash].acceptedCount;\n        proposals[hash].id = proposalsHashes.push(hash) - 1;\n        emit NewProposalSubmitted(hash, title);\n    }\n\n    // Vote from a member to accept or decline a membership request\n    function acceptNewMembership(address _requester) public onlyMember {\n        require(accessRequests[_requester].exists, \"No request have been made for this address\");\n        // You can't vote twice if you voted yes, otherwise you can switch (you know people do change..)\n        require(!accessRequests[_requester].hasVoted[msg.sender], \"You can't vote twice\");\n        \n        accessRequests[_requester].hasVoted[msg.sender] = true; // This address won't be able to vote anymore\n        ++accessRequests[_requester].acceptedcount; // __*Then*__ we increase the counter\n\n        emit VotedForNewMember(msg.sender, _requester);\n\n        if (accessRequests[_requester].acceptedcount > membersAddresses.length/2) {\n            // If a membership request reaches majority, it is accepted\n            if (!_addMember(accessRequests[_requester], _requester)) {\n                revert(\"Error while inserting new member\");\n            }\n            delete accessRequestsAddresses[accessRequests[_requester].id];\n            delete accessRequests[_requester];\n        }\n    }\n\n    // Vote for a member to be removed from the organization\n    function acceptMemberDeletion(address _memberAddress) public onlyMember {\n        require(delRequests[_memberAddress].exists, \"No request have been made to remove this member\");\n        require(!delRequests[_memberAddress].hasVoted[msg.sender], \"You have already voted to remove this member\");\n\n        delRequests[_memberAddress].hasVoted[msg.sender] = true;\n        ++delRequests[_memberAddress].acceptedCount;\n        emit VotedForDelMember(msg.sender, _memberAddress);\n        if (delRequests[_memberAddress].acceptedCount > membersAddresses.length/2) {\n            // Game over\n            if (!_delMember(_memberAddress)) {\n                revert(\"Error when deleting member\");\n            }\n            delete delRequestsAddresses[delRequests[_memberAddress].id];\n            delete delRequests[_memberAddress];\n        }\n    }\n\n    function acceptProposal(bytes32 hash) public onlyMember {\n        require(!proposals[hash].exists, \"This proposal does not exist\");\n        require(!proposals[hash].hasVoted[msg.sender], \"You can't vote twice\");\n\n        proposals[hash].hasVoted[msg.sender] = true;\n        ++proposals[hash].acceptedCount;\n        emit VotedForProposal(hash, proposals[hash].title, msg.sender);\n        if (proposals[hash].acceptedCount > membersAddresses.length/2) {\n            proposals[hash].accepted = true; // Congratulations !!\n            emit ProposalAccepted(hash, proposals[hash].title);\n        }\n    }\n\n    // Returns organization informations\n    function getOrganizationInfo() public view returns (\n        string memory orgName,\n        string memory orgId,\n        string memory orgWebsite,\n        uint orgMembersCount)\n    {\n        return (name, id, website, getMembersCount());\n    }\n \n    // Returns members count\n    function getMembersCount() public view returns(uint) {\n        return membersAddresses.length;\n    }\n\n    // Returns potential members count\n    function getAccessRequestsCount() public view returns(uint) {\n        return accessRequestsAddresses.length;\n    }\n}\n",
  "sourcePath": "/home/bruce/git/crypto-lyon/smart-asso/contracts/contracts/Organization.sol",
  "compiler": {
    "name": "solc",
    "version": "0.5.0+commit.1d4f565a.Linux.g++"
  },
  "schemaVersion": "3.0.2",
  "updatedAt": "2019-03-16T16:27:43.364Z",
  "devdoc": {
    "methods": {}
  },
  "userdoc": {
    "methods": {}
  }
}