{
  "contractName": "Organization",
  "abi": [
    {
      "constant": true,
      "inputs": [
        {
          "name": "",
          "type": "address"
        }
      ],
      "name": "members",
      "outputs": [
        {
          "name": "firstName",
          "type": "string"
        },
        {
          "name": "lastName",
          "type": "string"
        },
        {
          "name": "availableTokens",
          "type": "uint256"
        },
        {
          "name": "exists",
          "type": "bool"
        },
        {
          "name": "id",
          "type": "uint256"
        }
      ],
      "payable": false,
      "stateMutability": "view",
      "type": "function",
      "signature": "0x08ae4b0c"
    },
    {
      "constant": true,
      "inputs": [
        {
          "name": "",
          "type": "uint256"
        }
      ],
      "name": "accessRequestsAddresses",
      "outputs": [
        {
          "name": "",
          "type": "address"
        }
      ],
      "payable": false,
      "stateMutability": "view",
      "type": "function",
      "signature": "0x39bb57d7"
    },
    {
      "constant": false,
      "inputs": [],
      "name": "kill",
      "outputs": [],
      "payable": false,
      "stateMutability": "nonpayable",
      "type": "function",
      "signature": "0x41c0e1b5"
    },
    {
      "constant": true,
      "inputs": [
        {
          "name": "",
          "type": "address"
        }
      ],
      "name": "accessRequests",
      "outputs": [
        {
          "name": "firstName",
          "type": "string"
        },
        {
          "name": "lastName",
          "type": "string"
        },
        {
          "name": "exists",
          "type": "bool"
        },
        {
          "name": "id",
          "type": "uint256"
        },
        {
          "name": "acceptedcount",
          "type": "uint256"
        }
      ],
      "payable": false,
      "stateMutability": "view",
      "type": "function",
      "signature": "0x4a9a2309"
    },
    {
      "constant": true,
      "inputs": [
        {
          "name": "",
          "type": "uint256"
        }
      ],
      "name": "membersAddresses",
      "outputs": [
        {
          "name": "",
          "type": "address"
        }
      ],
      "payable": false,
      "stateMutability": "view",
      "type": "function",
      "signature": "0x5ee5a3c6"
    },
    {
      "inputs": [
        {
          "name": "_name",
          "type": "string"
        },
        {
          "name": "_id",
          "type": "string"
        },
        {
          "name": "_website",
          "type": "string"
        }
      ],
      "payable": false,
      "stateMutability": "nonpayable",
      "type": "constructor",
      "signature": "constructor"
    },
    {
      "anonymous": false,
      "inputs": [
        {
          "indexed": false,
          "name": "requester",
          "type": "address"
        },
        {
          "indexed": false,
          "name": "firstName",
          "type": "string"
        },
        {
          "indexed": false,
          "name": "lastName",
          "type": "string"
        }
      ],
      "name": "NewMembershipRequest",
      "type": "event",
      "signature": "0xdcef50bda69574c489bf05e08a4f3bd85650e1f4cad86f467986c9af181bbb36"
    },
    {
      "anonymous": false,
      "inputs": [
        {
          "indexed": true,
          "name": "voter",
          "type": "address"
        },
        {
          "indexed": false,
          "name": "requester",
          "type": "address"
        },
        {
          "indexed": false,
          "name": "decision",
          "type": "bool"
        }
      ],
      "name": "VotedForNewMember",
      "type": "event",
      "signature": "0x47ff7c296ac3c168c1548ce80940448f6966fde6a07de47c03b40f1aca89850c"
    },
    {
      "anonymous": false,
      "inputs": [
        {
          "indexed": false,
          "name": "requester",
          "type": "address"
        },
        {
          "indexed": false,
          "name": "firstName",
          "type": "string"
        },
        {
          "indexed": false,
          "name": "lastName",
          "type": "string"
        }
      ],
      "name": "NewMemberAccepted",
      "type": "event",
      "signature": "0xe017e2c3793323212ee79ef8d3c6d3867658ba8f7330250a641f1d287ffb7e7a"
    },
    {
      "constant": true,
      "inputs": [],
      "name": "getOrganizationInfo",
      "outputs": [
        {
          "name": "orgName",
          "type": "string"
        },
        {
          "name": "orgId",
          "type": "string"
        },
        {
          "name": "orgWebsite",
          "type": "string"
        },
        {
          "name": "orgMembersCount",
          "type": "uint256"
        }
      ],
      "payable": false,
      "stateMutability": "view",
      "type": "function",
      "signature": "0xe894d0a2"
    },
    {
      "constant": false,
      "inputs": [
        {
          "name": "_firstName",
          "type": "string"
        },
        {
          "name": "_lastName",
          "type": "string"
        }
      ],
      "name": "requestMembership",
      "outputs": [],
      "payable": false,
      "stateMutability": "nonpayable",
      "type": "function",
      "signature": "0x1a5a78a5"
    },
    {
      "constant": false,
      "inputs": [
        {
          "name": "_requester",
          "type": "address"
        }
      ],
      "name": "acceptNewMembership",
      "outputs": [],
      "payable": false,
      "stateMutability": "nonpayable",
      "type": "function",
      "signature": "0x2f2ab9df"
    },
    {
      "constant": true,
      "inputs": [],
      "name": "getMembersCount",
      "outputs": [
        {
          "name": "",
          "type": "uint256"
        }
      ],
      "payable": false,
      "stateMutability": "view",
      "type": "function",
      "signature": "0x09772f8f"
    }
  ],
  "bytecode": "0x60806040523480156200001157600080fd5b5060405162001a1a38038062001a1a833981018060405260608110156200003757600080fd5b8101908080516401000000008111156200005057600080fd5b820160208101848111156200006457600080fd5b81516401000000008111828201871017156200007f57600080fd5b505092919060200180516401000000008111156200009c57600080fd5b82016020810184811115620000b057600080fd5b8151640100000000811182820187101715620000cb57600080fd5b50509291906020018051640100000000811115620000e857600080fd5b82016020810184811115620000fc57600080fd5b81516401000000008111828201871017156200011757600080fd5b505060008054600160a060020a0319163317905585519093506200014592506001915060208601906200043e565b5081516200015b9060029060208501906200043e565b508051620001719060039060208401906200043e565b50600062000181600582620004c3565b506200018c620004ef565b506040805160e081018252600560a082018181527f61646d696e00000000000000000000000000000000000000000000000000000060c084018190529083528351808501855291825260208281019190915282015260019181019190915260006060820181905260808201526200020d813364010000000062000218810204565b505050505062000541565b8151600160a060020a03821660009081526004602090815260408220835192936200024793919201906200043e565b50602080840151600160a060020a0384166000908152600483526040902081516200027c93600190920192909101906200043e565b50604083810151600160a060020a0384166000818152600460208181529185902060038101805460ff1916951515959095179094556064600280860191909155600580546001818101928390557f036b6384b5eca791c62761152d0c79bb0604c104a5fb6f4eb0703f3154bb3db09091018054600160a060020a031916871790559286015585519384526060928401838152855460001961010082861615020116919091049284018390527fe017e2c3793323212ee79ef8d3c6d3867658ba8f7330250a641f1d287ffb7e7a958895949285019390830190608084019086908015620003ac5780601f106200038057610100808354040283529160200191620003ac565b820191906000526020600020905b8154815290600101906020018083116200038e57829003601f168201915b5050838103825284546002600019610100600184161502019091160480825260209091019085908015620004245780601f10620003f85761010080835404028352916020019162000424565b820191906000526020600020905b8154815290600101906020018083116200040657829003601f168201915b50509550505050505060405180910390a150600192915050565b828054600181600116156101000203166002900490600052602060002090601f016020900481019282601f106200048157805160ff1916838001178555620004b1565b82800160010185558215620004b1579182015b82811115620004b157825182559160200191906001019062000494565b50620004bf92915062000521565b5090565b815481835581811115620004ea57600083815260209020620004ea91810190830162000521565b505050565b60a060405190810160405280606081526020016060815260200160001515815260200160008152602001600081525090565b6200053e91905b80821115620004bf576000815560010162000528565b90565b6114c980620005516000396000f3fe6080604052600436106100985763ffffffff7c010000000000000000000000000000000000000000000000000000000060003504166308ae4b0c811461009d57806309772f8f146101c45780631a5a78a5146101eb5780632f2ab9df1461032757806339bb57d71461035a57806341c0e1b5146103a05780634a9a2309146103b55780635ee5a3c61461043e578063e894d0a214610468575b600080fd5b3480156100a957600080fd5b506100d0600480360360208110156100c057600080fd5b5035600160a060020a0316610587565b6040805190810184905282151560608201526080810182905260a08082528651908201528551819060208083019160c08401918a019080838360005b8381101561012457818101518382015260200161010c565b50505050905090810190601f1680156101515780820380516001836020036101000a031916815260200191505b50838103825287518152875160209182019189019080838360005b8381101561018457818101518382015260200161016c565b50505050905090810190601f1680156101b15780820380516001836020036101000a031916815260200191505b5097505050505050505060405180910390f35b3480156101d057600080fd5b506101d96106de565b60408051918252519081900360200190f35b3480156101f757600080fd5b506103256004803603604081101561020e57600080fd5b81019060208101813564010000000081111561022957600080fd5b82018360208201111561023b57600080fd5b8035906020019184600183028401116401000000008311171561025d57600080fd5b91908080601f01602080910402602001604051908101604052809392919081815260200183838082843760009201919091525092959493602081019350359150506401000000008111156102b057600080fd5b8201836020820111156102c257600080fd5b803590602001918460018302840111640100000000831117156102e457600080fd5b91908080601f0160208091040260200160405190810160405280939291908181526020018383808284376000920191909152509295506106e5945050505050565b005b34801561033357600080fd5b506103256004803603602081101561034a57600080fd5b5035600160a060020a03166109d7565b34801561036657600080fd5b506103846004803603602081101561037d57600080fd5b5035610e2d565b60408051600160a060020a039092168252519081900360200190f35b3480156103ac57600080fd5b50610325610e55565b3480156103c157600080fd5b506103e8600480360360208110156103d857600080fd5b5035600160a060020a0316610e6d565b60405180806020018060200186151515158152602001858152602001848152602001838103835288818151815260200191508051906020019080838360008381101561012457818101518382015260200161010c565b34801561044a57600080fd5b506103846004803603602081101561046157600080fd5b5035610fc4565b34801561047457600080fd5b5061047d610fd2565b60405180806020018060200180602001858152602001848103845288818151815260200191508051906020019080838360005b838110156104c85781810151838201526020016104b0565b50505050905090810190601f1680156104f55780820380516001836020036101000a031916815260200191505b50848103835287518152875160209182019189019080838360005b83811015610528578181015183820152602001610510565b50505050905090810190601f1680156105555780820380516001836020036101000a031916815260200191505b50848103825286518152865160209182019188019080838360008381101561018457818101518382015260200161016c565b60046020908152600091825260409182902080548351601f6002600019610100600186161502019093169290920491820184900484028101840190945280845290929183919083018282801561061e5780601f106105f35761010080835404028352916020019161061e565b820191906000526020600020905b81548152906001019060200180831161060157829003601f168201915b505050505090806001018054600181600116156101000203166002900480601f0160208091040260200160405190810160405280929190818152602001828054600181600116156101000203166002900480156106bc5780601f10610691576101008083540402835291602001916106bc565b820191906000526020600020905b81548152906001019060200180831161069f57829003601f168201915b50505050600283015460038401546004909401549293909260ff909116915085565b6005545b90565b3360009081526006602052604090206002015460ff1615610776576040805160e560020a62461bcd02815260206004820152603060248201527f4120726571756573742068617320616c7265616479206265656e206d6164652060448201527f666f722074686973206164647265737300000000000000000000000000000000606482015290519081900360840190fd5b3360009081526004602052604090206003015460ff1615610807576040805160e560020a62461bcd02815260206004820152603160248201527f54686973207573657220697320616c72656164792061206d656d626572206f6660448201527f20746865206f7267616e697a6174696f6e000000000000000000000000000000606482015290519081900360840190fd5b3360009081526006602090815260409091208351610827928501906113c5565b50336000908152600660209081526040909120825161084e926001909201918401906113c5565b5033600081815260066020908152604080832060028101805460ff191660019081179091556005820185905560078054918201908190557fa66cc928b5edb82af9bd49922954155ab7b0942694bea4ce44661d9a8736c688909101805473ffffffffffffffffffffffffffffffffffffffff1916871790556003909101558051848152606081840181815288519183019190915287517fdcef50bda69574c489bf05e08a4f3bd85650e1f4cad86f467986c9af181bbb369695899589958501926080860192918801918190849084905b8381101561093657818101518382015260200161091e565b50505050905090810190601f1680156109635780820380516001836020036101000a031916815260200191505b50838103825284518152845160209182019186019080838360005b8381101561099657818101518382015260200161097e565b50505050905090810190601f1680156109c35780820380516001836020036101000a031916815260200191505b509550505050505060405180910390a15050565b3360009081526004602052604090206003015460ff161515610a43576040805160e560020a62461bcd02815260206004820152601760248201527f41646472657373206973206e6f742061206d656d626572000000000000000000604482015290519081900360640190fd5b600160a060020a03811660009081526006602052604090206002015460ff161515610ade576040805160e560020a62461bcd02815260206004820152602a60248201527f4e6f20726571756573742068617665206265656e206d61646520666f7220746860448201527f6973206164647265737300000000000000000000000000000000000000000000606482015290519081900360840190fd5b600160a060020a038116600090815260066020908152604080832033845260040190915290205460ff1615610b5d576040805160e560020a62461bcd02815260206004820152601460248201527f596f752063616e277420766f7465207477696365000000000000000000000000604482015290519081900360640190fd5b600160a060020a038116600081815260066020818152604080842033808652600482018452828620805460ff1916600190811790915595879052938352600501805485019055805194855290840192909252815190927f47ff7c296ac3c168c1548ce80940448f6966fde6a07de47c03b40f1aca89850c92908290030190a2600554600290600160a060020a0383166000908152600660205260409020600501549190041015610e2a57600160a060020a0381166000908152600660209081526040918290208251815460026001821615610100026000190190911604601f8101849004909302810160c090810190945260a08101838152610d869491938492849190840182828015610cb15780601f10610c8657610100808354040283529160200191610cb1565b820191906000526020600020905b815481529060010190602001808311610c9457829003601f168201915b50505050508152602001600182018054600181600116156101000203166002900480601f016020809104026020016040519081016040528092919081815260200182805460018160011615610100020316600290048015610d535780601f10610d2857610100808354040283529160200191610d53565b820191906000526020600020905b815481529060010190602001808311610d3657829003601f168201915b5050509183525050600282015460ff1615156020820152600382015460408201526005909101546060909101528261119e565b1515610ddc576040805160e560020a62461bcd02815260206004820181905260248201527f6572726f72207768696c6520696e73657274696e67206e6577206d656d626572604482015290519081900360640190fd5b600160a060020a038116600090815260066020526040812090610dff8282611443565b610e0d600183016000611443565b5060028101805460ff191690556000600382018190556005909101555b50565b6007805482908110610e3b57fe5b600091825260209091200154600160a060020a0316905081565b600054600160a060020a0316331415610e6b5733ff5b565b60066020908152600091825260409182902080548351601f60026000196101006001861615020190931692909204918201849004840281018401909452808452909291839190830182828015610f045780601f10610ed957610100808354040283529160200191610f04565b820191906000526020600020905b815481529060010190602001808311610ee757829003601f168201915b505050505090806001018054600181600116156101000203166002900480601f016020809104026020016040519081016040528092919081815260200182805460018160011615610100020316600290048015610fa25780601f10610f7757610100808354040283529160200191610fa2565b820191906000526020600020905b815481529060010190602001808311610f8557829003601f168201915b5050505060028301546003840154600590940154929360ff9091169290915085565b6005805482908110610e3b57fe5b60608060606000600160026003610fe76106de565b8354604080516020601f6002600019610100600188161502019095169490940493840181900481028201810190925282815291869183018282801561106d5780601f106110425761010080835404028352916020019161106d565b820191906000526020600020905b81548152906001019060200180831161105057829003601f168201915b5050865460408051602060026001851615610100026000190190941693909304601f8101849004840282018401909252818152959950889450925084019050828280156110fb5780601f106110d0576101008083540402835291602001916110fb565b820191906000526020600020905b8154815290600101906020018083116110de57829003601f168201915b5050855460408051602060026001851615610100026000190190941693909304601f8101849004840282018401909252818152959850879450925084019050828280156111895780601f1061115e57610100808354040283529160200191611189565b820191906000526020600020905b81548152906001019060200180831161116c57829003601f168201915b50505050509150935093509350935090919293565b8151600160a060020a03821660009081526004602090815260408220835192936111cb93919201906113c5565b50602080840151600160a060020a0384166000908152600483526040902081516111fe93600190920192909101906113c5565b50604083810151600160a060020a0384166000818152600460208181529185902060038101805460ff1916951515959095179094556064600280860191909155600580546001818101928390557f036b6384b5eca791c62761152d0c79bb0604c104a5fb6f4eb0703f3154bb3db0909101805473ffffffffffffffffffffffffffffffffffffffff1916871790559286015585519384526060928401838152855460001961010082861615020116919091049284018390527fe017e2c3793323212ee79ef8d3c6d3867658ba8f7330250a641f1d287ffb7e7a9588959492850193908301906080840190869080156113375780601f1061130c57610100808354040283529160200191611337565b820191906000526020600020905b81548152906001019060200180831161131a57829003601f168201915b50508381038252845460026000196101006001841615020190911604808252602090910190859080156113ab5780601f10611380576101008083540402835291602001916113ab565b820191906000526020600020905b81548152906001019060200180831161138e57829003601f168201915b50509550505050505060405180910390a150600192915050565b828054600181600116156101000203166002900490600052602060002090601f016020900481019282601f1061140657805160ff1916838001178555611433565b82800160010185558215611433579182015b82811115611433578251825591602001919060010190611418565b5061143f929150611483565b5090565b50805460018160011615610100020316600290046000825580601f106114695750610e2a565b601f016020900490600052602060002090810190610e2a91905b6106e291905b8082111561143f576000815560010161148956fea165627a7a7230582077ec13c39b0b840f043c7264b4f0bddd99087e01cbd21779705455d6c4cc76670029",
  "source": "pragma solidity >=0.4.22 <0.6.0;\nimport \"./Mortal.sol\";\n\ncontract Organization is Mortal {\n    // A member of the organization\n    struct Member {\n        string firstName;\n        string lastName;\n        uint availableTokens;\n        bool exists;\n        uint id;\n    }\n\n    // A request made to add a new member to the organization\n    struct AccessRequest {\n        string firstName;\n        string lastName;\n        bool exists;\n        uint id;\n        mapping(address => bool) hasVoted; // You wont fool us ><\n        uint acceptedcount; // A counter to avoid a FUCKING BIG GAZ CONSUMING for loop to retrieve the %\n    }\n\n    // Organization informations\n    string name;\n    string id;\n    string website;\n\n    // All the members of the org\n    mapping(address => Member) public members;\n    address[] public membersAddresses;\n\n    // All the membership requests\n    mapping(address => AccessRequest) public accessRequests;\n    address[] public accessRequestsAddresses;\n\n    event NewMembershipRequest(address requester, string firstName, string lastName);\n    event VotedForNewMember(address indexed voter, address requester, bool decision);\n    event NewMemberAccepted(address requester, string firstName, string lastName);\n\n    modifier onlyMember {\n        require(members[msg.sender].exists, \"Address is not a member\");\n        _;\n    }\n\n    // Init organization\n    constructor(\n        string memory _name,\n        string memory _id,\n        string memory _website) public \n    {\n        name = _name;\n        id = _id;\n        website = _website;\n        membersAddresses.length = 0;\n        \n        // The owner is the first member\n        AccessRequest memory admin = AccessRequest({\n            firstName: \"admin\",\n            lastName: \"admin\",\n            exists: true,\n            id: 0,\n            acceptedcount: 0\n        });\n        _addMember(admin, msg.sender);\n    }\n\n    // Returns organization informations\n    function getOrganizationInfo() public view returns (\n        string memory orgName,\n        string memory orgId,\n        string memory orgWebsite,\n        uint orgMembersCount)\n    {\n        return (name, id, website, getMembersCount());\n    }\n\n    // Request a membership for a given address, name, and surname\n    function requestMembership (string memory _firstName, string memory _lastName) public {\n        require(!accessRequests[msg.sender].exists, \"A request has already been made for this address\");\n        require(!members[msg.sender].exists, \"This user is already a member of the organization\");\n\n        // Creation of a membership request for this \"person\"\n        accessRequests[msg.sender].firstName = _firstName;\n        accessRequests[msg.sender].lastName = _lastName;\n        accessRequests[msg.sender].exists = true;\n        accessRequests[msg.sender].acceptedcount = 0;\n        accessRequests[msg.sender].id = accessRequestsAddresses.push(msg.sender);\n\n        emit NewMembershipRequest(msg.sender, _firstName, _lastName);\n    }\n\n    // Adds a member to the list given a membership request\n    function _addMember(AccessRequest memory request, address _address) private returns (bool) {\n        members[_address].firstName = request.firstName;\n        members[_address].lastName = request.lastName;\n        members[_address].exists = request.exists;\n        members[_address].availableTokens = 100;\n        members[_address].id = membersAddresses.push(_address);\n        \n        emit NewMemberAccepted(_address, members[_address].firstName, members[_address].lastName);\n\n        return true;\n    }\n\n    // Vote from a member to accept or decline a membership request\n    function acceptNewMembership(address _requester) public onlyMember {\n        require(accessRequests[_requester].exists, \"No request have been made for this address\");\n        // You can't vote twice if you voted yes, otherwise you can switch (you know people do change..)\n        require(!accessRequests[_requester].hasVoted[msg.sender], \"You can't vote twice\");\n        \n        accessRequests[_requester].hasVoted[msg.sender] = true; // This address won't be able to vote anymore\n        ++accessRequests[_requester].acceptedcount; // __*Then*__ we increase the counter\n\n        emit VotedForNewMember(msg.sender, _requester, true);\n\n        if (accessRequests[_requester].acceptedcount > membersAddresses.length / 2) {\n            // If a membership request reaches majority, it is accepted\n            if (!_addMember(accessRequests[_requester], _requester)) {\n                revert(\"error while inserting new member\");\n            }\n            delete accessRequests[_requester];\n        }\n    }\n\n    // Returns members count\n    function getMembersCount() public view returns(uint) {\n        return membersAddresses.length;\n    }\n}\n",
  "sourcePath": "/home/bruce/git/crypto-lyon/smart-asso/contracts/contracts/Organization.sol",
  "compiler": {
    "name": "solc",
    "version": "0.5.0+commit.1d4f565a.Linux.g++"
  },
  "schemaVersion": "3.0.2",
  "updatedAt": "2019-03-16T11:48:47.680Z",
  "devdoc": {
    "methods": {}
  },
  "userdoc": {
    "methods": {}
  }
}