{
  "contractName": "Organization",
  "abi": [
    {
      "constant": false,
      "inputs": [],
      "name": "kill",
      "outputs": [],
      "payable": false,
      "stateMutability": "nonpayable",
      "type": "function",
      "signature": "0x41c0e1b5"
    },
    {
      "inputs": [
        {
          "name": "_name",
          "type": "string"
        },
        {
          "name": "_id",
          "type": "string"
        },
        {
          "name": "_website",
          "type": "string"
        }
      ],
      "payable": false,
      "stateMutability": "nonpayable",
      "type": "constructor",
      "signature": "constructor"
    },
    {
      "anonymous": false,
      "inputs": [
        {
          "indexed": true,
          "name": "purchaser",
          "type": "address"
        },
        {
          "indexed": false,
          "name": "firstName",
          "type": "string"
        },
        {
          "indexed": false,
          "name": "lastName",
          "type": "string"
        }
      ],
      "name": "NewMembershipRequest",
      "type": "event",
      "signature": "0xdcef50bda69574c489bf05e08a4f3bd85650e1f4cad86f467986c9af181bbb36"
    },
    {
      "constant": true,
      "inputs": [],
      "name": "getOrganizationInfo",
      "outputs": [
        {
          "name": "",
          "type": "string"
        },
        {
          "name": "",
          "type": "string"
        },
        {
          "name": "",
          "type": "string"
        },
        {
          "name": "",
          "type": "uint256"
        }
      ],
      "payable": false,
      "stateMutability": "view",
      "type": "function",
      "signature": "0xe894d0a2"
    },
    {
      "constant": false,
      "inputs": [
        {
          "name": "_address",
          "type": "address"
        },
        {
          "name": "_firstName",
          "type": "string"
        },
        {
          "name": "_lastName",
          "type": "string"
        }
      ],
      "name": "requestMembership",
      "outputs": [
        {
          "name": "",
          "type": "string"
        }
      ],
      "payable": false,
      "stateMutability": "nonpayable",
      "type": "function",
      "signature": "0x71781479"
    },
    {
      "constant": false,
      "inputs": [
        {
          "name": "_address",
          "type": "address"
        },
        {
          "name": "_firstName",
          "type": "string"
        },
        {
          "name": "_lastName",
          "type": "string"
        }
      ],
      "name": "addMember",
      "outputs": [
        {
          "name": "",
          "type": "string"
        }
      ],
      "payable": false,
      "stateMutability": "nonpayable",
      "type": "function",
      "signature": "0x76c19546"
    },
    {
      "constant": true,
      "inputs": [
        {
          "name": "_address",
          "type": "address"
        }
      ],
      "name": "isAddressAlowed",
      "outputs": [
        {
          "name": "",
          "type": "bool"
        }
      ],
      "payable": false,
      "stateMutability": "view",
      "type": "function",
      "signature": "0xe8dc3e50"
    },
    {
      "constant": true,
      "inputs": [
        {
          "name": "_address",
          "type": "address"
        }
      ],
      "name": "getMember",
      "outputs": [
        {
          "name": "",
          "type": "address"
        },
        {
          "name": "",
          "type": "string"
        },
        {
          "name": "",
          "type": "string"
        },
        {
          "name": "",
          "type": "uint256"
        },
        {
          "name": "",
          "type": "uint256"
        }
      ],
      "payable": false,
      "stateMutability": "view",
      "type": "function",
      "signature": "0x2ada2596"
    },
    {
      "constant": true,
      "inputs": [],
      "name": "getMemberList",
      "outputs": [
        {
          "name": "",
          "type": "address[]"
        }
      ],
      "payable": false,
      "stateMutability": "view",
      "type": "function",
      "signature": "0x5f5d5f00"
    },
    {
      "constant": true,
      "inputs": [],
      "name": "getMembersCount",
      "outputs": [
        {
          "name": "",
          "type": "uint256"
        }
      ],
      "payable": false,
      "stateMutability": "view",
      "type": "function",
      "signature": "0x09772f8f"
    }
  ],
  "bytecode": "0x60806040523480156200001157600080fd5b506040516200148238038062001482833981018060405260608110156200003757600080fd5b8101908080516401000000008111156200005057600080fd5b820160208101848111156200006457600080fd5b81516401000000008111828201871017156200007f57600080fd5b505092919060200180516401000000008111156200009c57600080fd5b82016020810184811115620000b057600080fd5b8151640100000000811182820187101715620000cb57600080fd5b50509291906020018051640100000000811115620000e857600080fd5b82016020810184811115620000fc57600080fd5b81516401000000008111828201871017156200011757600080fd5b505060008054600160a060020a0319163317905585519093506200014592506001915060208601906200018b565b5081516200015b9060029060208501906200018b565b508051620001719060039060208401906200018b565b5060006200018160058262000210565b505050506200025c565b828054600181600116156101000203166002900490600052602060002090601f016020900481019282601f10620001ce57805160ff1916838001178555620001fe565b82800160010185558215620001fe579182015b82811115620001fe578251825591602001919060010190620001e1565b506200020c9291506200023c565b5090565b8154818355818111156200023757600083815260209020620002379181019083016200023c565b505050565b6200025991905b808211156200020c576000815560010162000243565b90565b611216806200026c6000396000f3fe60806040526004361061008d5763ffffffff7c010000000000000000000000000000000000000000000000000000000060003504166309772f8f81146100925780632ada2596146100b957806341c0e1b5146101f15780635f5d5f0014610208578063717814791461026d57806376c195461461042c578063e894d0a214610576578063e8dc3e5014610695575b600080fd5b34801561009e57600080fd5b506100a76106dc565b60408051918252519081900360200190f35b3480156100c557600080fd5b506100ec600480360360208110156100dc57600080fd5b5035600160a060020a03166106e3565b6040518086600160a060020a0316600160a060020a031681526020018060200180602001858152602001848152602001838103835287818151815260200191508051906020019080838360005b83811015610151578181015183820152602001610139565b50505050905090810190601f16801561017e5780820380516001836020036101000a031916815260200191505b50838103825286518152865160209182019188019080838360005b838110156101b1578181015183820152602001610199565b50505050905090810190601f1680156101de5780820380516001836020036101000a031916815260200191505b5097505050505050505060405180910390f35b3480156101fd57600080fd5b5061020661091c565b005b34801561021457600080fd5b5061021d610934565b60408051602080825283518183015283519192839290830191858101910280838360005b83811015610259578181015183820152602001610241565b505050509050019250505060405180910390f35b34801561027957600080fd5b506103b76004803603606081101561029057600080fd5b600160a060020a0382351691908101906040810160208201356401000000008111156102bb57600080fd5b8201836020820111156102cd57600080fd5b803590602001918460018302840111640100000000831117156102ef57600080fd5b91908080601f016020809104026020016040519081016040528093929190818152602001838380828437600092019190915250929594936020810193503591505064010000000081111561034257600080fd5b82018360208201111561035457600080fd5b8035906020019184600183028401116401000000008311171561037657600080fd5b91908080601f0160208091040260200160405190810160405280939291908181526020018383808284376000920191909152509295506109f5945050505050565b6040805160208082528351818301528351919283929083019185019080838360005b838110156103f15781810151838201526020016103d9565b50505050905090810190601f16801561041e5780820380516001836020036101000a031916815260200191505b509250505060405180910390f35b34801561043857600080fd5b506103b76004803603606081101561044f57600080fd5b600160a060020a03823516919081019060408101602082013564010000000081111561047a57600080fd5b82018360208201111561048c57600080fd5b803590602001918460018302840111640100000000831117156104ae57600080fd5b91908080601f016020809104026020016040519081016040528093929190818152602001838380828437600092019190915250929594936020810193503591505064010000000081111561050157600080fd5b82018360208201111561051357600080fd5b8035906020019184600183028401116401000000008311171561053557600080fd5b91908080601f016020809104026020016040519081016040528093929190818152602001838380828437600092019190915250929550610d1c945050505050565b34801561058257600080fd5b5061058b610f34565b60405180806020018060200180602001858152602001848103845288818151815260200191508051906020019080838360005b838110156105d65781810151838201526020016105be565b50505050905090810190601f1680156106035780820380516001836020036101000a031916815260200191505b50848103835287518152875160209182019189019080838360005b8381101561063657818101518382015260200161061e565b50505050905090810190601f1680156106635780820380516001836020036101000a031916815260200191505b5084810382528651815286516020918201918801908083836000838110156101b1578181015183820152602001610199565b3480156106a157600080fd5b506106c8600480360360208110156106b857600080fd5b5035600160a060020a0316611100565b604080519115158252519081900360200190f35b6005545b90565b60006060806000806106f433611100565b151561074a576040805160e560020a62461bcd02815260206004820152601360248201527f41646472657373206e6f7420616c6c6f77656400000000000000000000000000604482015290519081900360640190fd5b600160a060020a03861660009081526004602052604090206003015460ff1615156001146107c2576040805160e560020a62461bcd02815260206004820152600f60248201527f55736572206e6f7420666f756e642e0000000000000000000000000000000000604482015290519081900360640190fd5b600160a060020a0386166000908152600460208181526040928390206002808201549382015482548651600180831615610100026000190190921693909304601f81018690048602840186019097528683528c96939590860194909391929186918301828280156108745780601f1061084957610100808354040283529160200191610874565b820191906000526020600020905b81548152906001019060200180831161085757829003601f168201915b5050865460408051602060026001851615610100026000190190941693909304601f8101849004840282018401909252818152959950889450925084019050828280156109025780601f106108d757610100808354040283529160200191610902565b820191906000526020600020905b8154815290600101906020018083116108e557829003601f168201915b505050505092509450945094509450945091939590929450565b600054600160a060020a03163314156109325733ff5b565b606061093f33611100565b1515610995576040805160e560020a62461bcd02815260206004820152601360248201527f41646472657373206e6f7420616c6c6f77656400000000000000000000000000604482015290519081900360640190fd5b60058054806020026020016040519081016040528092919081815260200182805480156109eb57602002820191906000526020600020905b8154600160a060020a031681526001909101906020018083116109cd575b5050505050905090565b600160a060020a03831660009081526006602052604090206003015460609060ff16151560011415610a97576040805160e560020a62461bcd02815260206004820152602c60248201527f5573657220616c7265616479206d61646520726571756573742077697468207460448201527f68697320616464726573732e0000000000000000000000000000000000000000606482015290519081900360840190fd5b600160a060020a03841660009081526006602090815260409091208451610ac092860190611152565b50600160a060020a03841660009081526006602090815260409091208351610af092600190920191850190611152565b50600160a060020a038416600081815260066020908152604080832060038101805460ff1916600190811790915560078054918201908190557fa66cc928b5edb82af9bd49922954155ab7b0942694bea4ce44661d9a8736c688909101805473ffffffffffffffffffffffffffffffffffffffff191687179055600490910155805181815287519181019190915286517fdcef50bda69574c489bf05e08a4f3bd85650e1f4cad86f467986c9af181bbb369388938893928392838301926060850192908801918190849084905b83811015610bd5578181015183820152602001610bbd565b50505050905090810190601f168015610c025780820380516001836020036101000a031916815260200191505b50838103825284518152845160209182019186019080838360005b83811015610c35578181015183820152602001610c1d565b50505050905090810190601f168015610c625780820380516001836020036101000a031916815260200191505b5094505050505060405180910390a2600160a060020a03841660009081526006602090815260409182902080548351601f600260001961010060018616150201909316929092049182018490048402810184019094528084529091830182828015610d0e5780601f10610ce357610100808354040283529160200191610d0e565b820191906000526020600020905b815481529060010190602001808311610cf157829003601f168201915b505050505090509392505050565b600054606090600160a060020a03163314610d81576040805160e560020a62461bcd02815260206004820181905260248201527f55736572206d757374206265206f776e657220746f20616464204d656d626572604482015290519081900360640190fd5b600160a060020a03841660009081526004602052604090206003015460ff16151560011415610dfa576040805160e560020a62461bcd02815260206004820152601460248201527f5573657220616c7265616479206578697374732e000000000000000000000000604482015290519081900360640190fd5b600160a060020a03841660009081526004602090815260409091208451610e2392860190611152565b50600160a060020a03841660009081526004602090815260409091208351610e5392600190920191850190611152565b50600160a060020a038416600081815260046020818152604080842060038101805460ff19166001908117909155606460028084019190915560058054808401918290557f036b6384b5eca791c62761152d0c79bb0604c104a5fb6f4eb0703f3154bb3db001805473ffffffffffffffffffffffffffffffffffffffff19168a179055979096529381019590955584548151601f948216156101000260001901909116949094049283018290048202840182019052818352919291830182828015610d0e5780601f10610ce357610100808354040283529160200191610d0e565b60608060606000600160026003610f496106dc565b8354604080516020601f60026000196101006001881615020190951694909404938401819004810282018101909252828152918691830182828015610fcf5780601f10610fa457610100808354040283529160200191610fcf565b820191906000526020600020905b815481529060010190602001808311610fb257829003601f168201915b5050865460408051602060026001851615610100026000190190941693909304601f81018490048402820184019092528181529599508894509250840190508282801561105d5780601f106110325761010080835404028352916020019161105d565b820191906000526020600020905b81548152906001019060200180831161104057829003601f168201915b5050855460408051602060026001851615610100026000190190941693909304601f8101849004840282018401909252818152959850879450925084019050828280156110eb5780601f106110c0576101008083540402835291602001916110eb565b820191906000526020600020905b8154815290600101906020018083116110ce57829003601f168201915b50505050509150935093509350935090919293565b600160a060020a03811660009081526004602052604081206003015460ff1615156001148061113c5750600054600160a060020a038381169116145b156111495750600161114d565b5060005b919050565b828054600181600116156101000203166002900490600052602060002090601f016020900481019282601f1061119357805160ff19168380011785556111c0565b828001600101855582156111c0579182015b828111156111c05782518255916020019190600101906111a5565b506111cc9291506111d0565b5090565b6106e091905b808211156111cc57600081556001016111d656fea165627a7a72305820d9200c30e697f03f7a5ba811433a52f043f4e50b659f3762a832dc6afabe1d700029",
  "source": "pragma solidity >=0.4.22 <0.6.0;\nimport \"./Mortal.sol\";\n\ncontract Organization is Mortal {\n\n    struct Member {\n        string firstName;\n        string lastName;\n        uint availableTokens;\n        bool exists;\n        uint id;\n    }\n\n    struct Request {\n        string firstName;\n        string lastName;\n        bool exists;\n        uint id;\n    }\n\n    string name;\n    string id;\n    string website;\n\n    mapping(address => Member) members;\n    address[] membersAddress;\n\n    mapping(address => Member) requests;\n    address[] requestsAddress;\n\n    event NewMembershipRequest(address indexed purchaser, string firstName, string lastName);\n\n    // Init organization\n    constructor(string memory _name, string memory _id, string memory _website) public {\n        name = _name;\n        id = _id;\n        website = _website;\n        membersAddress.length = 0;\n    }\n\n    // Returns organization informations\n    function getOrganizationInfo() public view returns (string memory, string memory, string memory, uint) {\n        return (name, id, website, getMembersCount());\n    }\n\n    function requestMembership(address _address, string memory _firstName, string memory _lastName) public  returns (string memory) {\n\n        if(requests[_address].exists == true) {\n            revert(\"User already made request with this address.\");\n        }\n\n        requests[_address].firstName = _firstName;\n        requests[_address].lastName = _lastName;\n        requests[_address].exists = true;\n        requests[_address].id = requestsAddress.push(_address);\n\n        emit NewMembershipRequest(_address, _firstName, _lastName);\n        return requests[_address].firstName;\n    }\n\n    // Add a new member\n    function addMember(address _address, string memory _firstName, string memory _lastName) public  returns (string memory) {\n        require(msg.sender == owner, \"User must be owner to add Member\");\n\n        if(members[_address].exists == true) {\n            revert(\"User already exists.\");\n        }\n\n        members[_address].firstName = _firstName;\n        members[_address].lastName = _lastName;\n        members[_address].exists = true;\n        members[_address].availableTokens = 100;\n        members[_address].id = membersAddress.push(_address);\n\n        return members[_address].firstName;\n    }\n\n    // Only organization members or owners can view others members\n    function isAddressAlowed(address _address) public view returns (bool) {\n        if(members[_address].exists == true || _address == owner) {\n            return true;\n        } else {\n            return false;\n        }\n    }\n\n    // Returns member informations\n    function getMember(address _address) public view returns (address, string memory, string memory, uint, uint) {\n        require(isAddressAlowed(msg.sender), \"Address not allowed\");\n        require(members[_address].exists == true, \"User not found.\");\n\n        return (_address, members[_address].firstName, members[_address].lastName, members[_address].availableTokens, members[_address].id);\n    }\n\n    // Return member list\n    function getMemberList() public view returns (address[] memory) {\n        require(isAddressAlowed(msg.sender), \"Address not allowed\");\n        return membersAddress;\n    }\n\n    // Returns members count\n    function getMembersCount() public view returns(uint) {\n        return membersAddress.length;\n    }\n\n\n}\n",
  "sourcePath": "/home/bruce/git/crypto-lyon/smart-asso/contracts/contracts/Organization.sol",
  "compiler": {
    "name": "solc",
    "version": "0.5.0+commit.1d4f565a.Linux.g++"
  },
  "schemaVersion": "3.0.2",
  "updatedAt": "2019-03-15T23:15:05.913Z",
  "devdoc": {
    "methods": {}
  },
  "userdoc": {
    "methods": {}
  }
}