{
  "contractName": "Organization",
  "abi": [
    {
      "constant": true,
      "inputs": [
        {
          "name": "",
          "type": "address"
        }
      ],
      "name": "members",
      "outputs": [
        {
          "name": "firstName",
          "type": "string"
        },
        {
          "name": "lastName",
          "type": "string"
        },
        {
          "name": "availableTokens",
          "type": "uint256"
        },
        {
          "name": "exists",
          "type": "bool"
        },
        {
          "name": "id",
          "type": "uint256"
        }
      ],
      "payable": false,
      "stateMutability": "view",
      "type": "function",
      "signature": "0x08ae4b0c"
    },
    {
      "constant": true,
      "inputs": [
        {
          "name": "",
          "type": "address"
        }
      ],
      "name": "delRequests",
      "outputs": [
        {
          "name": "exists",
          "type": "bool"
        },
        {
          "name": "id",
          "type": "uint256"
        },
        {
          "name": "acceptedCount",
          "type": "uint256"
        }
      ],
      "payable": false,
      "stateMutability": "view",
      "type": "function",
      "signature": "0x2caba0cf"
    },
    {
      "constant": true,
      "inputs": [
        {
          "name": "",
          "type": "uint256"
        }
      ],
      "name": "accessRequestsAddresses",
      "outputs": [
        {
          "name": "",
          "type": "address"
        }
      ],
      "payable": false,
      "stateMutability": "view",
      "type": "function",
      "signature": "0x39bb57d7"
    },
    {
      "constant": false,
      "inputs": [],
      "name": "kill",
      "outputs": [],
      "payable": false,
      "stateMutability": "nonpayable",
      "type": "function",
      "signature": "0x41c0e1b5"
    },
    {
      "constant": true,
      "inputs": [
        {
          "name": "",
          "type": "address"
        }
      ],
      "name": "accessRequests",
      "outputs": [
        {
          "name": "firstName",
          "type": "string"
        },
        {
          "name": "lastName",
          "type": "string"
        },
        {
          "name": "exists",
          "type": "bool"
        },
        {
          "name": "id",
          "type": "uint256"
        },
        {
          "name": "acceptedcount",
          "type": "uint256"
        }
      ],
      "payable": false,
      "stateMutability": "view",
      "type": "function",
      "signature": "0x4a9a2309"
    },
    {
      "constant": true,
      "inputs": [
        {
          "name": "",
          "type": "uint256"
        }
      ],
      "name": "membersAddresses",
      "outputs": [
        {
          "name": "",
          "type": "address"
        }
      ],
      "payable": false,
      "stateMutability": "view",
      "type": "function",
      "signature": "0x5ee5a3c6"
    },
    {
      "constant": true,
      "inputs": [
        {
          "name": "",
          "type": "uint256"
        }
      ],
      "name": "delRequestsAddresses",
      "outputs": [
        {
          "name": "",
          "type": "address"
        }
      ],
      "payable": false,
      "stateMutability": "view",
      "type": "function",
      "signature": "0xa649cead"
    },
    {
      "inputs": [
        {
          "name": "_name",
          "type": "string"
        },
        {
          "name": "_id",
          "type": "string"
        },
        {
          "name": "_website",
          "type": "string"
        }
      ],
      "payable": false,
      "stateMutability": "nonpayable",
      "type": "constructor",
      "signature": "constructor"
    },
    {
      "anonymous": false,
      "inputs": [
        {
          "indexed": false,
          "name": "requester",
          "type": "address"
        },
        {
          "indexed": false,
          "name": "firstName",
          "type": "string"
        },
        {
          "indexed": false,
          "name": "lastName",
          "type": "string"
        }
      ],
      "name": "NewMembershipRequest",
      "type": "event",
      "signature": "0xdcef50bda69574c489bf05e08a4f3bd85650e1f4cad86f467986c9af181bbb36"
    },
    {
      "anonymous": false,
      "inputs": [
        {
          "indexed": false,
          "name": "memberAddress",
          "type": "address"
        },
        {
          "indexed": false,
          "name": "firstName",
          "type": "string"
        },
        {
          "indexed": false,
          "name": "lastName",
          "type": "string"
        }
      ],
      "name": "NewDeletionRequest",
      "type": "event",
      "signature": "0xd93c0973bb5a318b6420af16983058400e354fc6c64468468ea3ae881abe3fab"
    },
    {
      "anonymous": false,
      "inputs": [
        {
          "indexed": true,
          "name": "voter",
          "type": "address"
        },
        {
          "indexed": false,
          "name": "requester",
          "type": "address"
        }
      ],
      "name": "VotedForNewMember",
      "type": "event",
      "signature": "0x54d4f2856fc6df81f59ebd4f19f0811355727165b409c8175dacff78292f7c59"
    },
    {
      "anonymous": false,
      "inputs": [
        {
          "indexed": true,
          "name": "voter",
          "type": "address"
        },
        {
          "indexed": false,
          "name": "memberAddress",
          "type": "address"
        }
      ],
      "name": "VotedForDelMember",
      "type": "event",
      "signature": "0xe4c4fc0bd541d96b22a84cd21f1e3a0fbf14829af041032c336bc26c7dda5417"
    },
    {
      "anonymous": false,
      "inputs": [
        {
          "indexed": false,
          "name": "requester",
          "type": "address"
        },
        {
          "indexed": false,
          "name": "firstName",
          "type": "string"
        },
        {
          "indexed": false,
          "name": "lastName",
          "type": "string"
        }
      ],
      "name": "NewMemberAccepted",
      "type": "event",
      "signature": "0xe017e2c3793323212ee79ef8d3c6d3867658ba8f7330250a641f1d287ffb7e7a"
    },
    {
      "anonymous": false,
      "inputs": [
        {
          "indexed": false,
          "name": "memberAddress",
          "type": "address"
        },
        {
          "indexed": false,
          "name": "firstName",
          "type": "string"
        },
        {
          "indexed": false,
          "name": "lastName",
          "type": "string"
        }
      ],
      "name": "MemberDeleted",
      "type": "event",
      "signature": "0x95e667267b4832338f972c1aade134d5c768c1d5b3fdd5320892fe6531b530f6"
    },
    {
      "constant": false,
      "inputs": [
        {
          "name": "_firstName",
          "type": "string"
        },
        {
          "name": "_lastName",
          "type": "string"
        }
      ],
      "name": "requestMembership",
      "outputs": [],
      "payable": false,
      "stateMutability": "nonpayable",
      "type": "function",
      "signature": "0x1a5a78a5"
    },
    {
      "constant": false,
      "inputs": [
        {
          "name": "_address",
          "type": "address"
        }
      ],
      "name": "requestDeletion",
      "outputs": [],
      "payable": false,
      "stateMutability": "nonpayable",
      "type": "function",
      "signature": "0x04013b1e"
    },
    {
      "constant": false,
      "inputs": [
        {
          "name": "_requester",
          "type": "address"
        }
      ],
      "name": "acceptNewMembership",
      "outputs": [],
      "payable": false,
      "stateMutability": "nonpayable",
      "type": "function",
      "signature": "0x2f2ab9df"
    },
    {
      "constant": false,
      "inputs": [
        {
          "name": "_memberAddress",
          "type": "address"
        }
      ],
      "name": "acceptMemberDeletion",
      "outputs": [],
      "payable": false,
      "stateMutability": "nonpayable",
      "type": "function",
      "signature": "0x1ee67485"
    },
    {
      "constant": true,
      "inputs": [],
      "name": "getOrganizationInfo",
      "outputs": [
        {
          "name": "orgName",
          "type": "string"
        },
        {
          "name": "orgId",
          "type": "string"
        },
        {
          "name": "orgWebsite",
          "type": "string"
        },
        {
          "name": "orgMembersCount",
          "type": "uint256"
        }
      ],
      "payable": false,
      "stateMutability": "view",
      "type": "function",
      "signature": "0xe894d0a2"
    },
    {
      "constant": true,
      "inputs": [],
      "name": "getMembersCount",
      "outputs": [
        {
          "name": "",
          "type": "uint256"
        }
      ],
      "payable": false,
      "stateMutability": "view",
      "type": "function",
      "signature": "0x09772f8f"
    },
    {
      "constant": true,
      "inputs": [],
      "name": "getAccessRequestsCount",
      "outputs": [
        {
          "name": "",
          "type": "uint256"
        }
      ],
      "payable": false,
      "stateMutability": "view",
      "type": "function",
      "signature": "0x9a45b6d8"
    }
  ],
  "bytecode": "0x60806040523480156200001157600080fd5b506040516200229d3803806200229d833981018060405260608110156200003757600080fd5b8101908080516401000000008111156200005057600080fd5b820160208101848111156200006457600080fd5b81516401000000008111828201871017156200007f57600080fd5b505092919060200180516401000000008111156200009c57600080fd5b82016020810184811115620000b057600080fd5b8151640100000000811182820187101715620000cb57600080fd5b50509291906020018051640100000000811115620000e857600080fd5b82016020810184811115620000fc57600080fd5b81516401000000008111828201871017156200011757600080fd5b505060008054600160a060020a0319163317905585519093506200014592506001915060208601906200043e565b5081516200015b9060029060208501906200043e565b508051620001719060039060208401906200043e565b50600062000181600582620004c3565b506200018c620004ef565b506040805160e081018252600560a082018181527f61646d696e00000000000000000000000000000000000000000000000000000060c084018190529083528351808501855291825260208281019190915282015260019181019190915260006060820181905260808201526200020d813364010000000062000218810204565b505050505062000541565b8151600160a060020a03821660009081526004602090815260408220835192936200024793919201906200043e565b50602080840151600160a060020a0384166000908152600483526040902081516200027c93600190920192909101906200043e565b50604083810151600160a060020a0384166000818152600460208181529185902060038101805460ff1916951515959095179094556064600280860191909155600580546001818101928390557f036b6384b5eca791c62761152d0c79bb0604c104a5fb6f4eb0703f3154bb3db09091018054600160a060020a031916871790559286015585519384526060928401838152855460001961010082861615020116919091049284018390527fe017e2c3793323212ee79ef8d3c6d3867658ba8f7330250a641f1d287ffb7e7a958895949285019390830190608084019086908015620003ac5780601f106200038057610100808354040283529160200191620003ac565b820191906000526020600020905b8154815290600101906020018083116200038e57829003601f168201915b5050838103825284546002600019610100600184161502019091160480825260209091019085908015620004245780601f10620003f85761010080835404028352916020019162000424565b820191906000526020600020905b8154815290600101906020018083116200040657829003601f168201915b50509550505050505060405180910390a150600192915050565b828054600181600116156101000203166002900490600052602060002090601f016020900481019282601f106200048157805160ff1916838001178555620004b1565b82800160010185558215620004b1579182015b82811115620004b157825182559160200191906001019062000494565b50620004bf92915062000521565b5090565b815481835581811115620004ea57600083815260209020620004ea91810190830162000521565b505050565b60a060405190810160405280606081526020016060815260200160001515815260200160008152602001600081525090565b6200053e91905b80821115620004bf576000815560010162000528565b90565b611d4c80620005516000396000f3fe6080604052600436106100cf5763ffffffff7c010000000000000000000000000000000000000000000000000000000060003504166304013b1e81146100d457806308ae4b0c1461010957806309772f8f146102305780631a5a78a5146102575780631ee67485146103915780632caba0cf146103c45780632f2ab9df1461041757806339bb57d71461044a57806341c0e1b5146104905780634a9a2309146104a55780635ee5a3c61461052e5780639a45b6d814610558578063a649cead1461056d578063e894d0a214610597575b600080fd5b3480156100e057600080fd5b50610107600480360360208110156100f757600080fd5b5035600160a060020a03166106b6565b005b34801561011557600080fd5b5061013c6004803603602081101561012c57600080fd5b5035600160a060020a0316610869565b6040805190810184905282151560608201526080810182905260a08082528651908201528551819060208083019160c08401918a019080838360005b83811015610190578181015183820152602001610178565b50505050905090810190601f1680156101bd5780820380516001836020036101000a031916815260200191505b50838103825287518152875160209182019189019080838360005b838110156101f05781810151838201526020016101d8565b50505050905090810190601f16801561021d5780820380516001836020036101000a031916815260200191505b5097505050505050505060405180910390f35b34801561023c57600080fd5b506102456109c0565b60408051918252519081900360200190f35b34801561026357600080fd5b506101076004803603604081101561027a57600080fd5b81019060208101813564010000000081111561029557600080fd5b8201836020820111156102a757600080fd5b803590602001918460018302840111640100000000831117156102c957600080fd5b91908080601f016020809104026020016040519081016040528093929190818152602001838380828437600092019190915250929594936020810193503591505064010000000081111561031c57600080fd5b82018360208201111561032e57600080fd5b8035906020019184600183028401116401000000008311171561035057600080fd5b91908080601f0160208091040260200160405190810160405280939291908181526020018383808284376000920191909152509295506109c7945050505050565b34801561039d57600080fd5b50610107600480360360208110156103b457600080fd5b5035600160a060020a0316610cb9565b3480156103d057600080fd5b506103f7600480360360208110156103e757600080fd5b5035600160a060020a0316610fe3565b604080519315158452602084019290925282820152519081900360600190f35b34801561042357600080fd5b506101076004803603602081101561043a57600080fd5b5035600160a060020a0316611008565b34801561045657600080fd5b506104746004803603602081101561046d57600080fd5b50356114a7565b60408051600160a060020a039092168252519081900360200190f35b34801561049c57600080fd5b506101076114cf565b3480156104b157600080fd5b506104d8600480360360208110156104c857600080fd5b5035600160a060020a03166114e7565b604051808060200180602001861515151581526020018581526020018481526020018381038352888181518152602001915080519060200190808383600083811015610190578181015183820152602001610178565b34801561053a57600080fd5b506104746004803603602081101561055157600080fd5b503561163e565b34801561056457600080fd5b5061024561164c565b34801561057957600080fd5b506104746004803603602081101561059057600080fd5b5035611652565b3480156105a357600080fd5b506105ac611660565b60405180806020018060200180602001858152602001848103845288818151815260200191508051906020019080838360005b838110156105f75781810151838201526020016105df565b50505050905090810190601f1680156106245780820380516001836020036101000a031916815260200191505b50848103835287518152875160209182019189019080838360005b8381101561065757818101518382015260200161063f565b50505050905090810190601f1680156106845780820380516001836020036101000a031916815260200191505b5084810382528651815286516020918201918801908083836000838110156101f05781810151838201526020016101d8565b600160a060020a03811660009081526004602052604090206003015460ff161515610751576040805160e560020a62461bcd02815260206004820152603c60248201527f54686973206164647265737320646f6573206e6f7420726570726573656e742060448201527f61206d656d626572206f6620746865206f7267616e697a6174696f6e00000000606482015290519081900360840190fd5b600160a060020a03811660009081526008602052604090205460ff1615156107e9576040805160e560020a62461bcd02815260206004820152603560248201527f4120726571756573742068617320616c7265616479206265656e206d6164652060448201527f746f2072656d6f76652074686973206d656d6265720000000000000000000000606482015290519081900360840190fd5b600160a060020a031660008181526008602052604081206003810191909155600980546001808201928390557f6e1540171b6c0c960b71a7020d9f60077f6af931a8bbf590da0223dacf75c7af909101805473ffffffffffffffffffffffffffffffffffffffff191690941790935582820155805460ff19169091179055565b60046020908152600091825260409182902080548351601f600260001961010060018616150201909316929092049182018490048402810184019094528084529092918391908301828280156109005780601f106108d557610100808354040283529160200191610900565b820191906000526020600020905b8154815290600101906020018083116108e357829003601f168201915b505050505090806001018054600181600116156101000203166002900480601f01602080910402602001604051908101604052809291908181526020018280546001816001161561010002031660029004801561099e5780601f106109735761010080835404028352916020019161099e565b820191906000526020600020905b81548152906001019060200180831161098157829003601f168201915b50505050600283015460038401546004909401549293909260ff909116915085565b6005545b90565b3360009081526006602052604090206002015460ff1615610a58576040805160e560020a62461bcd02815260206004820152603060248201527f4120726571756573742068617320616c7265616479206265656e206d6164652060448201527f666f722074686973206164647265737300000000000000000000000000000000606482015290519081900360840190fd5b3360009081526004602052604090206003015460ff1615610ae9576040805160e560020a62461bcd02815260206004820152603160248201527f54686973207573657220697320616c72656164792061206d656d626572206f6660448201527f20746865206f7267616e697a6174696f6e000000000000000000000000000000606482015290519081900360840190fd5b3360009081526006602090815260409091208351610b0992850190611c48565b503360009081526006602090815260409091208251610b3092600190920191840190611c48565b5033600081815260066020908152604080832060028101805460ff191660019081179091556005820185905560078054918201908190557fa66cc928b5edb82af9bd49922954155ab7b0942694bea4ce44661d9a8736c688909101805473ffffffffffffffffffffffffffffffffffffffff1916871790556003909101558051848152606081840181815288519183019190915287517fdcef50bda69574c489bf05e08a4f3bd85650e1f4cad86f467986c9af181bbb369695899589958501926080860192918801918190849084905b83811015610c18578181015183820152602001610c00565b50505050905090810190601f168015610c455780820380516001836020036101000a031916815260200191505b50838103825284518152845160209182019186019080838360005b83811015610c78578181015183820152602001610c60565b50505050905090810190601f168015610ca55780820380516001836020036101000a031916815260200191505b509550505050505060405180910390a15050565b3360009081526004602052604090206003015460ff161515610d25576040805160e560020a62461bcd02815260206004820152601760248201527f41646472657373206973206e6f742061206d656d626572000000000000000000604482015290519081900360640190fd5b600160a060020a03811660009081526008602052604090205460ff161515610dbd576040805160e560020a62461bcd02815260206004820152602f60248201527f4e6f20726571756573742068617665206265656e206d61646520746f2072656d60448201527f6f76652074686973206d656d6265720000000000000000000000000000000000606482015290519081900360840190fd5b600160a060020a038116600090815260086020908152604080832033845260020190915290205460ff1615610e62576040805160e560020a62461bcd02815260206004820152602c60248201527f596f75206861766520616c726561647920766f74656420746f2072656d6f766560448201527f2074686973206d656d6265720000000000000000000000000000000000000000606482015290519081900360840190fd5b600160a060020a038116600081815260086020818152604080842033808652600282018452828620805460ff191660019081179091559587905293835260030180549094019093558251938452915190927fe4c4fc0bd541d96b22a84cd21f1e3a0fbf14829af041032c336bc26c7dda541792908290030190a2600554600160a060020a03821660009081526008602052604090206003015460029091041015610fe057610f0f8161182c565b1515610f65576040805160e560020a62461bcd02815260206004820152601a60248201527f4572726f72207768656e2064656c6574696e67206d656d626572000000000000604482015290519081900360640190fd5b600160a060020a038116600090815260086020526040902060010154600980549091908110610f9057fe5b60009182526020808320909101805473ffffffffffffffffffffffffffffffffffffffff19169055600160a060020a03831682526008905260408120805460ff1916815560018101829055600301555b50565b60086020526000908152604090208054600182015460039092015460ff909116919083565b3360009081526004602052604090206003015460ff161515611074576040805160e560020a62461bcd02815260206004820152601760248201527f41646472657373206973206e6f742061206d656d626572000000000000000000604482015290519081900360640190fd5b600160a060020a03811660009081526006602052604090206002015460ff16151561110f576040805160e560020a62461bcd02815260206004820152602a60248201527f4e6f20726571756573742068617665206265656e206d61646520666f7220746860448201527f6973206164647265737300000000000000000000000000000000000000000000606482015290519081900360840190fd5b600160a060020a038116600090815260066020908152604080832033845260040190915290205460ff161561118e576040805160e560020a62461bcd02815260206004820152601460248201527f596f752063616e277420766f7465207477696365000000000000000000000000604482015290519081900360640190fd5b600160a060020a038116600081815260066020818152604080842033808652600482018452828620805460ff191660019081179091559587905293835260050180549094019093558251938452915190927f54d4f2856fc6df81f59ebd4f19f0811355727165b409c8175dacff78292f7c5992908290030190a2600554600290600160a060020a0383166000908152600660205260409020600501549190041015610fe057600160a060020a0381166000908152600660209081526040918290208251815460026001821615610100026000190190911604601f8101849004909302810160c090810190945260a081018381526113b294919384928491908401828280156112dd5780601f106112b2576101008083540402835291602001916112dd565b820191906000526020600020905b8154815290600101906020018083116112c057829003601f168201915b50505050508152602001600182018054600181600116156101000203166002900480601f01602080910402602001604051908101604052809291908181526020018280546001816001161561010002031660029004801561137f5780601f106113545761010080835404028352916020019161137f565b820191906000526020600020905b81548152906001019060200180831161136257829003601f168201915b5050509183525050600282015460ff16151560208201526003820154604082015260059091015460609091015282611a21565b1515611408576040805160e560020a62461bcd02815260206004820181905260248201527f4572726f72207768696c6520696e73657274696e67206e6577206d656d626572604482015290519081900360640190fd5b600160a060020a03811660009081526006602052604090206003015460078054909190811061143357fe5b60009182526020808320909101805473ffffffffffffffffffffffffffffffffffffffff19169055600160a060020a038316825260069052604081209061147a8282611cc6565b611488600183016000611cc6565b5060028101805460ff1916905560006003820181905560059091015550565b60078054829081106114b557fe5b600091825260209091200154600160a060020a0316905081565b600054600160a060020a03163314156114e55733ff5b565b60066020908152600091825260409182902080548351601f6002600019610100600186161502019093169290920491820184900484028101840190945280845290929183919083018282801561157e5780601f106115535761010080835404028352916020019161157e565b820191906000526020600020905b81548152906001019060200180831161156157829003601f168201915b505050505090806001018054600181600116156101000203166002900480601f01602080910402602001604051908101604052809291908181526020018280546001816001161561010002031660029004801561161c5780601f106115f15761010080835404028352916020019161161c565b820191906000526020600020905b8154815290600101906020018083116115ff57829003601f168201915b5050505060028301546003840154600590940154929360ff9091169290915085565b60058054829081106114b557fe5b60075490565b60098054829081106114b557fe5b606080606060006001600260036116756109c0565b8354604080516020601f600260001961010060018816150201909516949094049384018190048102820181019092528281529186918301828280156116fb5780601f106116d0576101008083540402835291602001916116fb565b820191906000526020600020905b8154815290600101906020018083116116de57829003601f168201915b5050865460408051602060026001851615610100026000190190941693909304601f8101849004840282018401909252818152959950889450925084019050828280156117895780601f1061175e57610100808354040283529160200191611789565b820191906000526020600020905b81548152906001019060200180831161176c57829003601f168201915b5050855460408051602060026001851615610100026000190190941693909304601f8101849004840282018401909252818152959850879450925084019050828280156118175780601f106117ec57610100808354040283529160200191611817565b820191906000526020600020905b8154815290600101906020018083116117fa57829003601f168201915b50505050509150935093509350935090919293565b600160a060020a0381166000818152600460209081526040808320815194855260609285018381528154600260018083161561010002600019019092160494870185905294957f95e667267b4832338f972c1aade134d5c768c1d5b3fdd5320892fe6531b530f6958895939490850193919291908301906080840190869080156118f75780601f106118cc576101008083540402835291602001916118f7565b820191906000526020600020905b8154815290600101906020018083116118da57829003601f168201915b505083810382528454600260001961010060018416150201909116048082526020909101908590801561196b5780601f106119405761010080835404028352916020019161196b565b820191906000526020600020905b81548152906001019060200180831161194e57829003601f168201915b50509550505050505060405180910390a1600160a060020a038216600090815260046020819052604090912001546005805490919081106119a857fe5b60009182526020808320909101805473ffffffffffffffffffffffffffffffffffffffff19169055600160a060020a03841682526004905260408120906119ef8282611cc6565b6119fd600183016000611cc6565b5060006002820181905560038201805460ff19169055600490910155506001919050565b8151600160a060020a0382166000908152600460209081526040822083519293611a4e9391920190611c48565b50602080840151600160a060020a038416600090815260048352604090208151611a819360019092019290910190611c48565b50604083810151600160a060020a0384166000818152600460208181529185902060038101805460ff1916951515959095179094556064600280860191909155600580546001818101928390557f036b6384b5eca791c62761152d0c79bb0604c104a5fb6f4eb0703f3154bb3db0909101805473ffffffffffffffffffffffffffffffffffffffff1916871790559286015585519384526060928401838152855460001961010082861615020116919091049284018390527fe017e2c3793323212ee79ef8d3c6d3867658ba8f7330250a641f1d287ffb7e7a958895949285019390830190608084019086908015611bba5780601f10611b8f57610100808354040283529160200191611bba565b820191906000526020600020905b815481529060010190602001808311611b9d57829003601f168201915b5050838103825284546002600019610100600184161502019091160480825260209091019085908015611c2e5780601f10611c0357610100808354040283529160200191611c2e565b820191906000526020600020905b815481529060010190602001808311611c1157829003601f168201915b50509550505050505060405180910390a150600192915050565b828054600181600116156101000203166002900490600052602060002090601f016020900481019282601f10611c8957805160ff1916838001178555611cb6565b82800160010185558215611cb6579182015b82811115611cb6578251825591602001919060010190611c9b565b50611cc2929150611d06565b5090565b50805460018160011615610100020316600290046000825580601f10611cec5750610fe0565b601f016020900490600052602060002090810190610fe091905b6109c491905b80821115611cc25760008155600101611d0c56fea165627a7a72305820890160b1fdb08ad918468b4afa5ba1b244725b8af4ebdcee00031e7e8b8bf1810029",
  "source": "pragma solidity >=0.4.22 <0.6.0;\nimport \"./Mortal.sol\";\n\ncontract Organization is Mortal {\n    // A member of the organization\n    struct Member {\n        string firstName;\n        string lastName;\n        uint availableTokens;\n        bool exists;\n        uint id;\n    }\n\n    // A request made to add a new member to the organization\n    struct AccessRequest {\n        string firstName;\n        string lastName;\n        bool exists;\n        uint id;\n        mapping(address => bool) hasVoted; // You wont fool us ><\n        uint acceptedcount; // A counter to avoid a FUCKING BIG GAZ CONSUMING for loop to retrieve the %\n    }\n\n    // A request to remove a member from the organization\n    struct DeletionRequest {\n        bool exists;\n        uint id;\n        mapping(address => bool) hasVoted;\n        uint acceptedCount;\n    }\n\n    // Organization informations\n    string name;\n    string id;\n    string website;\n\n    // All the members of the org\n    mapping(address => Member) public members;\n    address[] public membersAddresses;\n\n    // All the membership requests\n    mapping(address => AccessRequest) public accessRequests;\n    address[] public accessRequestsAddresses;\n\n    // All the deletion requests\n    mapping(address => DeletionRequest) public delRequests;\n    address[] public delRequestsAddresses;\n\n    event NewMembershipRequest(address requester, string firstName, string lastName);\n    event NewDeletionRequest(address memberAddress, string firstName, string lastName);\n    event VotedForNewMember(address indexed voter, address requester);\n    event VotedForDelMember(address indexed voter, address memberAddress); // The decision will be true, or won't be\n    event NewMemberAccepted(address requester, string firstName, string lastName);\n    event MemberDeleted(address memberAddress, string firstName, string lastName);\n\n    modifier onlyMember {\n        require(members[msg.sender].exists, \"Address is not a member\");\n        _;\n    }\n\n    // Init organization\n    constructor(\n        string memory _name,\n        string memory _id,\n        string memory _website) public \n    {\n        name = _name;\n        id = _id;\n        website = _website;\n        membersAddresses.length = 0;\n        \n        // The owner is the first member\n        AccessRequest memory admin = AccessRequest({\n            firstName: \"admin\",\n            lastName: \"admin\",\n            exists: true,\n            id: 0,\n            acceptedcount: 0\n        });\n        _addMember(admin, msg.sender);\n    }\n\n    // Adds a member to the list given a membership request\n    function _addMember(AccessRequest memory _request, address _address) private returns (bool) {\n        members[_address].firstName = _request.firstName;\n        members[_address].lastName = _request.lastName;\n        members[_address].exists = _request.exists;\n        members[_address].availableTokens = 100;\n        members[_address].id = membersAddresses.push(_address);\n        \n        emit NewMemberAccepted(_address, members[_address].firstName, members[_address].lastName);\n\n        return true;\n    }\n\n    // Removes a member from the organization\n    function _delMember(address _address) private returns (bool) {\n        emit MemberDeleted(_address, members[_address].firstName, members[_address].lastName);\n        delete membersAddresses[members[_address].id];\n        delete members[_address];\n\n        return true;\n    }\n\n    // Request a membership for a given address, name, and surname\n    function requestMembership (string memory _firstName, string memory _lastName) public {\n        require(!accessRequests[msg.sender].exists, \"A request has already been made for this address\");\n        require(!members[msg.sender].exists, \"This user is already a member of the organization\");\n\n        // Creation of a membership request for this \"person\"\n        accessRequests[msg.sender].firstName = _firstName;\n        accessRequests[msg.sender].lastName = _lastName;\n        accessRequests[msg.sender].exists = true;\n        accessRequests[msg.sender].acceptedcount = 0;\n        accessRequests[msg.sender].id = accessRequestsAddresses.push(msg.sender);\n\n        emit NewMembershipRequest(msg.sender, _firstName, _lastName);\n    }\n\n    function requestDeletion (address _address) public {\n        require(members[_address].exists, \"This address does not represent a member of the organization\");\n        require(delRequests[_address].exists, \"A request has already been made to remove this member\");\n\n        delRequests[_address].acceptedCount = 0;\n        delRequests[_address].id = delRequestsAddresses.push(_address);\n        delRequests[_address].exists = true;\n    }\n\n    // Vote from a member to accept or decline a membership request\n    function acceptNewMembership(address _requester) public onlyMember {\n        require(accessRequests[_requester].exists, \"No request have been made for this address\");\n        // You can't vote twice if you voted yes, otherwise you can switch (you know people do change..)\n        require(!accessRequests[_requester].hasVoted[msg.sender], \"You can't vote twice\");\n        \n        accessRequests[_requester].hasVoted[msg.sender] = true; // This address won't be able to vote anymore\n        ++accessRequests[_requester].acceptedcount; // __*Then*__ we increase the counter\n\n        emit VotedForNewMember(msg.sender, _requester);\n\n        if (accessRequests[_requester].acceptedcount > membersAddresses.length/2) {\n            // If a membership request reaches majority, it is accepted\n            if (!_addMember(accessRequests[_requester], _requester)) {\n                revert(\"Error while inserting new member\");\n            }\n            delete accessRequestsAddresses[accessRequests[_requester].id];\n            delete accessRequests[_requester];\n        }\n    }\n\n    // Vote for a member to be removed from the organization\n    function acceptMemberDeletion(address _memberAddress) public onlyMember {\n        require(delRequests[_memberAddress].exists, \"No request have been made to remove this member\");\n        require(!delRequests[_memberAddress].hasVoted[msg.sender], \"You have already voted to remove this member\");\n\n        delRequests[_memberAddress].hasVoted[msg.sender] = true;\n        ++delRequests[_memberAddress].acceptedCount;\n        emit VotedForDelMember(msg.sender, _memberAddress);\n        if (delRequests[_memberAddress].acceptedCount > membersAddresses.length/2) {\n            // Game over\n            if (!_delMember(_memberAddress)) {\n                revert(\"Error when deleting member\");\n            }\n            delete delRequestsAddresses[delRequests[_memberAddress].id];\n            delete delRequests[_memberAddress];\n        }\n    }\n\n    // Returns organization informations\n    function getOrganizationInfo() public view returns (\n        string memory orgName,\n        string memory orgId,\n        string memory orgWebsite,\n        uint orgMembersCount)\n    {\n        return (name, id, website, getMembersCount());\n    }\n \n    // Returns members count\n    function getMembersCount() public view returns(uint) {\n        return membersAddresses.length;\n    }\n\n    // Returns potential members count\n    function getAccessRequestsCount() public view returns(uint) {\n        return accessRequestsAddresses.length;\n    }\n}\n",
  "sourcePath": "/home/bruce/git/crypto-lyon/smart-asso/contracts/contracts/Organization.sol",
  "compiler": {
    "name": "solc",
    "version": "0.5.0+commit.1d4f565a.Linux.g++"
  },
  "schemaVersion": "3.0.2",
  "updatedAt": "2019-03-16T14:49:35.258Z",
  "devdoc": {
    "methods": {}
  },
  "userdoc": {
    "methods": {}
  }
}