{
  "contractName": "Organization",
  "abi": [
    {
      "constant": false,
      "inputs": [],
      "name": "kill",
      "outputs": [],
      "payable": false,
      "stateMutability": "nonpayable",
      "type": "function",
      "signature": "0x41c0e1b5"
    },
    {
      "inputs": [
        {
          "name": "_name",
          "type": "string"
        },
        {
          "name": "_id",
          "type": "string"
        },
        {
          "name": "_website",
          "type": "string"
        }
      ],
      "payable": false,
      "stateMutability": "nonpayable",
      "type": "constructor",
      "signature": "constructor"
    },
    {
      "anonymous": false,
      "inputs": [
        {
          "indexed": false,
          "name": "requester",
          "type": "address"
        },
        {
          "indexed": false,
          "name": "firstName",
          "type": "string"
        },
        {
          "indexed": false,
          "name": "lastName",
          "type": "string"
        }
      ],
      "name": "NewMembershipRequest",
      "type": "event",
      "signature": "0xdcef50bda69574c489bf05e08a4f3bd85650e1f4cad86f467986c9af181bbb36"
    },
    {
      "anonymous": false,
      "inputs": [
        {
          "indexed": false,
          "name": "member",
          "type": "address"
        },
        {
          "indexed": false,
          "name": "requester",
          "type": "address"
        },
        {
          "indexed": false,
          "name": "decision",
          "type": "bool"
        }
      ],
      "name": "VotedForNewMember",
      "type": "event",
      "signature": "0x47ff7c296ac3c168c1548ce80940448f6966fde6a07de47c03b40f1aca89850c"
    },
    {
      "constant": true,
      "inputs": [],
      "name": "getOrganizationInfo",
      "outputs": [
        {
          "name": "",
          "type": "string"
        },
        {
          "name": "",
          "type": "string"
        },
        {
          "name": "",
          "type": "string"
        },
        {
          "name": "",
          "type": "uint256"
        }
      ],
      "payable": false,
      "stateMutability": "view",
      "type": "function",
      "signature": "0xe894d0a2"
    },
    {
      "constant": false,
      "inputs": [
        {
          "name": "_address",
          "type": "address"
        },
        {
          "name": "_firstName",
          "type": "string"
        },
        {
          "name": "_lastName",
          "type": "string"
        }
      ],
      "name": "requestMembership",
      "outputs": [
        {
          "name": "",
          "type": "string"
        }
      ],
      "payable": false,
      "stateMutability": "nonpayable",
      "type": "function",
      "signature": "0x71781479"
    },
    {
      "constant": false,
      "inputs": [
        {
          "name": "_address",
          "type": "address"
        },
        {
          "name": "_firstName",
          "type": "string"
        },
        {
          "name": "_lastName",
          "type": "string"
        }
      ],
      "name": "addMember",
      "outputs": [
        {
          "name": "",
          "type": "string"
        }
      ],
      "payable": false,
      "stateMutability": "nonpayable",
      "type": "function",
      "signature": "0x76c19546"
    },
    {
      "constant": false,
      "inputs": [
        {
          "name": "_requester",
          "type": "address"
        },
        {
          "name": "_decision",
          "type": "bool"
        }
      ],
      "name": "acceptNewMembership",
      "outputs": [
        {
          "name": "",
          "type": "bool"
        }
      ],
      "payable": false,
      "stateMutability": "nonpayable",
      "type": "function",
      "signature": "0x1943d57c"
    },
    {
      "constant": true,
      "inputs": [
        {
          "name": "_address",
          "type": "address"
        }
      ],
      "name": "isAddressAlowed",
      "outputs": [
        {
          "name": "",
          "type": "bool"
        }
      ],
      "payable": false,
      "stateMutability": "view",
      "type": "function",
      "signature": "0xe8dc3e50"
    },
    {
      "constant": true,
      "inputs": [
        {
          "name": "_address",
          "type": "address"
        }
      ],
      "name": "getMember",
      "outputs": [
        {
          "name": "",
          "type": "address"
        },
        {
          "name": "",
          "type": "string"
        },
        {
          "name": "",
          "type": "string"
        },
        {
          "name": "",
          "type": "uint256"
        },
        {
          "name": "",
          "type": "uint256"
        }
      ],
      "payable": false,
      "stateMutability": "view",
      "type": "function",
      "signature": "0x2ada2596"
    },
    {
      "constant": true,
      "inputs": [],
      "name": "getMemberList",
      "outputs": [
        {
          "name": "",
          "type": "address[]"
        }
      ],
      "payable": false,
      "stateMutability": "view",
      "type": "function",
      "signature": "0x5f5d5f00"
    },
    {
      "constant": true,
      "inputs": [],
      "name": "getMembersCount",
      "outputs": [
        {
          "name": "",
          "type": "uint256"
        }
      ],
      "payable": false,
      "stateMutability": "view",
      "type": "function",
      "signature": "0x09772f8f"
    }
  ],
  "bytecode": "0x60806040523480156200001157600080fd5b506040516200172938038062001729833981018060405260608110156200003757600080fd5b8101908080516401000000008111156200005057600080fd5b820160208101848111156200006457600080fd5b81516401000000008111828201871017156200007f57600080fd5b505092919060200180516401000000008111156200009c57600080fd5b82016020810184811115620000b057600080fd5b8151640100000000811182820187101715620000cb57600080fd5b50509291906020018051640100000000811115620000e857600080fd5b82016020810184811115620000fc57600080fd5b81516401000000008111828201871017156200011757600080fd5b505060008054600160a060020a0319163317905585519093506200014592506001915060208601906200018b565b5081516200015b9060029060208501906200018b565b508051620001719060039060208401906200018b565b5060006200018160058262000210565b505050506200025c565b828054600181600116156101000203166002900490600052602060002090601f016020900481019282601f10620001ce57805160ff1916838001178555620001fe565b82800160010185558215620001fe579182015b82811115620001fe578251825591602001919060010190620001e1565b506200020c9291506200023c565b5090565b8154818355818111156200023757600083815260209020620002379181019083016200023c565b505050565b6200025991905b808211156200020c576000815560010162000243565b90565b6114bd806200026c6000396000f3fe6080604052600436106100985763ffffffff7c010000000000000000000000000000000000000000000000000000000060003504166309772f8f811461009d5780631943d57c146100c45780632ada25961461011357806341c0e1b51461024b5780635f5d5f001461026257806371781479146102c757806376c1954614610486578063e894d0a2146105d0578063e8dc3e50146106ef575b600080fd5b3480156100a957600080fd5b506100b2610722565b60408051918252519081900360200190f35b3480156100d057600080fd5b506100ff600480360360408110156100e757600080fd5b50600160a060020a0381351690602001351515610729565b604080519115158252519081900360200190f35b34801561011f57600080fd5b506101466004803603602081101561013657600080fd5b5035600160a060020a03166108cc565b6040518086600160a060020a0316600160a060020a031681526020018060200180602001858152602001848152602001838103835287818151815260200191508051906020019080838360005b838110156101ab578181015183820152602001610193565b50505050905090810190601f1680156101d85780820380516001836020036101000a031916815260200191505b50838103825286518152865160209182019188019080838360005b8381101561020b5781810151838201526020016101f3565b50505050905090810190601f1680156102385780820380516001836020036101000a031916815260200191505b5097505050505050505060405180910390f35b34801561025757600080fd5b50610260610b05565b005b34801561026e57600080fd5b50610277610b1d565b60408051602080825283518183015283519192839290830191858101910280838360005b838110156102b357818101518382015260200161029b565b505050509050019250505060405180910390f35b3480156102d357600080fd5b50610411600480360360608110156102ea57600080fd5b600160a060020a03823516919081019060408101602082013564010000000081111561031557600080fd5b82018360208201111561032757600080fd5b8035906020019184600183028401116401000000008311171561034957600080fd5b91908080601f016020809104026020016040519081016040528093929190818152602001838380828437600092019190915250929594936020810193503591505064010000000081111561039c57600080fd5b8201836020820111156103ae57600080fd5b803590602001918460018302840111640100000000831117156103d057600080fd5b91908080601f016020809104026020016040519081016040528093929190818152602001838380828437600092019190915250929550610bde945050505050565b6040805160208082528351818301528351919283929083019185019080838360005b8381101561044b578181015183820152602001610433565b50505050905090810190601f1680156104785780820380516001836020036101000a031916815260200191505b509250505060405180910390f35b34801561049257600080fd5b50610411600480360360608110156104a957600080fd5b600160a060020a0382351691908101906040810160208201356401000000008111156104d457600080fd5b8201836020820111156104e657600080fd5b8035906020019184600183028401116401000000008311171561050857600080fd5b91908080601f016020809104026020016040519081016040528093929190818152602001838380828437600092019190915250929594936020810193503591505064010000000081111561055b57600080fd5b82018360208201111561056d57600080fd5b8035906020019184600183028401116401000000008311171561058f57600080fd5b91908080601f016020809104026020016040519081016040528093929190818152602001838380828437600092019190915250929550610fc3945050505050565b3480156105dc57600080fd5b506105e56111db565b60405180806020018060200180602001858152602001848103845288818151815260200191508051906020019080838360005b83811015610630578181015183820152602001610618565b50505050905090810190601f16801561065d5780820380516001836020036101000a031916815260200191505b50848103835287518152875160209182019189019080838360005b83811015610690578181015183820152602001610678565b50505050905090810190601f1680156106bd5780820380516001836020036101000a031916815260200191505b50848103825286518152865160209182019188019080838360008381101561020b5781810151838201526020016101f3565b3480156106fb57600080fd5b506100ff6004803603602081101561071257600080fd5b5035600160a060020a03166113a7565b6005545b90565b6000610734336113a7565b151561078a576040805160e560020a62461bcd02815260206004820152601360248201527f41646472657373206e6f7420616c6c6f77656400000000000000000000000000604482015290519081900360640190fd5b600160a060020a03831660009081526006602052604090206002015460ff161515600114610828576040805160e560020a62461bcd02815260206004820152602160248201527f556e6b6e6f776e206164647265737320696e20726571756573746572206c697360448201527f7400000000000000000000000000000000000000000000000000000000000000606482015290519081900360840190fd5b6001821515141561085a57600160a060020a03831660009081526006602052604090206004018054600101905561087d565b600160a060020a0383166000908152600660205260409020600501805460010190555b60408051338152600160a060020a03851660208201528315158183015290517f47ff7c296ac3c168c1548ce80940448f6966fde6a07de47c03b40f1aca89850c9181900360600190a150919050565b60006060806000806108dd336113a7565b1515610933576040805160e560020a62461bcd02815260206004820152601360248201527f41646472657373206e6f7420616c6c6f77656400000000000000000000000000604482015290519081900360640190fd5b600160a060020a03861660009081526004602052604090206003015460ff1615156001146109ab576040805160e560020a62461bcd02815260206004820152600f60248201527f55736572206e6f7420666f756e642e0000000000000000000000000000000000604482015290519081900360640190fd5b600160a060020a0386166000908152600460208181526040928390206002808201549382015482548651600180831615610100026000190190921693909304601f81018690048602840186019097528683528c9693959086019490939192918691830182828015610a5d5780601f10610a3257610100808354040283529160200191610a5d565b820191906000526020600020905b815481529060010190602001808311610a4057829003601f168201915b5050865460408051602060026001851615610100026000190190941693909304601f810184900484028201840190925281815295995088945092508401905082828015610aeb5780601f10610ac057610100808354040283529160200191610aeb565b820191906000526020600020905b815481529060010190602001808311610ace57829003601f168201915b505050505092509450945094509450945091939590929450565b600054600160a060020a0316331415610b1b5733ff5b565b6060610b28336113a7565b1515610b7e576040805160e560020a62461bcd02815260206004820152601360248201527f41646472657373206e6f7420616c6c6f77656400000000000000000000000000604482015290519081900360640190fd5b6005805480602002602001604051908101604052809291908181526020018280548015610bd457602002820191906000526020600020905b8154600160a060020a03168152600190910190602001808311610bb6575b5050505050905090565b600160a060020a03831660009081526006602052604090206002015460609060ff16151560011415610c80576040805160e560020a62461bcd02815260206004820152602c60248201527f5573657220616c7265616479206d61646520726571756573742077697468207460448201527f68697320616464726573732e0000000000000000000000000000000000000000606482015290519081900360840190fd5b600160a060020a03841660009081526004602052604090206003015460ff16151560011415610d1f576040805160e560020a62461bcd02815260206004820152602860248201527f5573657220697320616c72656164792061206d656d626572206f66206f72676160448201527f6e697a6174696f6e000000000000000000000000000000000000000000000000606482015290519081900360840190fd5b600160a060020a03841660009081526006602090815260409091208451610d48928601906113f9565b50600160a060020a03841660009081526006602090815260409091208351610d78926001909201918501906113f9565b50600160a060020a03841660008181526006602090815260408083206002810180546004830186905560058301869055600160ff199182168117909116811790915560078054918201908190557fa66cc928b5edb82af9bd49922954155ab7b0942694bea4ce44661d9a8736c688909101805473ffffffffffffffffffffffffffffffffffffffff1916871790556003909101558051938452606084830181815288519186019190915287517fdcef50bda69574c489bf05e08a4f3bd85650e1f4cad86f467986c9af181bbb36958a958a958a95929493928501926080860192918801918190849084905b83811015610e7b578181015183820152602001610e63565b50505050905090810190601f168015610ea85780820380516001836020036101000a031916815260200191505b50838103825284518152845160209182019186019080838360005b83811015610edb578181015183820152602001610ec3565b50505050905090810190601f168015610f085780820380516001836020036101000a031916815260200191505b509550505050505060405180910390a1600160a060020a03841660009081526006602090815260409182902080548351601f600260001961010060018616150201909316929092049182018490048402810184019094528084529091830182828015610fb55780601f10610f8a57610100808354040283529160200191610fb5565b820191906000526020600020905b815481529060010190602001808311610f9857829003601f168201915b505050505090509392505050565b600054606090600160a060020a03163314611028576040805160e560020a62461bcd02815260206004820181905260248201527f55736572206d757374206265206f776e657220746f20616464204d656d626572604482015290519081900360640190fd5b600160a060020a03841660009081526004602052604090206003015460ff161515600114156110a1576040805160e560020a62461bcd02815260206004820152601460248201527f5573657220616c7265616479206578697374732e000000000000000000000000604482015290519081900360640190fd5b600160a060020a038416600090815260046020908152604090912084516110ca928601906113f9565b50600160a060020a038416600090815260046020908152604090912083516110fa926001909201918501906113f9565b50600160a060020a038416600081815260046020818152604080842060038101805460ff19166001908117909155606460028084019190915560058054808401918290557f036b6384b5eca791c62761152d0c79bb0604c104a5fb6f4eb0703f3154bb3db001805473ffffffffffffffffffffffffffffffffffffffff19168a179055979096529381019590955584548151601f948216156101000260001901909116949094049283018290048202840182019052818352919291830182828015610fb55780601f10610f8a57610100808354040283529160200191610fb5565b606080606060006001600260036111f0610722565b8354604080516020601f600260001961010060018816150201909516949094049384018190048102820181019092528281529186918301828280156112765780601f1061124b57610100808354040283529160200191611276565b820191906000526020600020905b81548152906001019060200180831161125957829003601f168201915b5050865460408051602060026001851615610100026000190190941693909304601f8101849004840282018401909252818152959950889450925084019050828280156113045780601f106112d957610100808354040283529160200191611304565b820191906000526020600020905b8154815290600101906020018083116112e757829003601f168201915b5050855460408051602060026001851615610100026000190190941693909304601f8101849004840282018401909252818152959850879450925084019050828280156113925780601f1061136757610100808354040283529160200191611392565b820191906000526020600020905b81548152906001019060200180831161137557829003601f168201915b50505050509150935093509350935090919293565b600160a060020a03811660009081526004602052604081206003015460ff161515600114806113e35750600054600160a060020a038381169116145b156113f0575060016113f4565b5060005b919050565b828054600181600116156101000203166002900490600052602060002090601f016020900481019282601f1061143a57805160ff1916838001178555611467565b82800160010185558215611467579182015b8281111561146757825182559160200191906001019061144c565b50611473929150611477565b5090565b61072691905b80821115611473576000815560010161147d56fea165627a7a72305820b347063d1c0e13976d4be1bb37f45938f34b898d07c9e412c94db38e538a2d160029",
  "source": "pragma solidity >=0.4.22 <0.6.0;\nimport \"./Mortal.sol\";\n\ncontract Organization is Mortal {\n\n    struct Member {\n        string firstName;\n        string lastName;\n        uint availableTokens;\n        bool exists;\n        uint id;\n    }\n\n    struct Request {\n        string firstName;\n        string lastName;\n        bool exists;\n        uint id;\n        uint acceptedcount;\n        uint rejectedcount;\n    }\n\n    string name;\n    string id;\n    string website;\n\n    mapping(address => Member) members;\n    address[] membersAddress;\n\n    mapping(address => Request) requests;\n    address[] requestsAddress;\n\n    event NewMembershipRequest(address requester, string firstName, string lastName);\n\n    event VotedForNewMember(address member, address requester, bool decision);\n\n    // Init organization\n    constructor(string memory _name, string memory _id, string memory _website) public {\n        name = _name;\n        id = _id;\n        website = _website;\n        membersAddress.length = 0;\n    }\n\n    // Returns organization informations\n    function getOrganizationInfo() public view returns (string memory, string memory, string memory, uint) {\n        return (name, id, website, getMembersCount());\n    }\n\n    function requestMembership(address _address, string memory _firstName, string memory _lastName) public  returns (string memory) {\n\n        if(requests[_address].exists == true) {\n            revert(\"User already made request with this address.\");\n        }\n\n        if(members[_address].exists == true) {\n            revert(\"User is already a member of organization\");\n        }\n\n        requests[_address].firstName = _firstName;\n        requests[_address].lastName = _lastName;\n        requests[_address].exists = true;\n        requests[_address].acceptedcount = 0;\n        requests[_address].rejectedcount = 0;\n        requests[_address].exists = true;\n        requests[_address].id = requestsAddress.push(_address);\n\n        emit NewMembershipRequest(_address, _firstName, _lastName);\n        return requests[_address].firstName;\n    }\n\n    // Add a new member\n    function addMember(address _address, string memory _firstName, string memory _lastName) public  returns (string memory) {\n        require(msg.sender == owner, \"User must be owner to add Member\");\n\n        if(members[_address].exists == true) {\n            revert(\"User already exists.\");\n        }\n\n        members[_address].firstName = _firstName;\n        members[_address].lastName = _lastName;\n        members[_address].exists = true;\n        members[_address].availableTokens = 100;\n        members[_address].id = membersAddress.push(_address);\n\n        return members[_address].firstName;\n    }\n\n    function acceptNewMembership(address _requester, bool _decision) public returns (bool) {\n        require(isAddressAlowed(msg.sender), \"Address not allowed\");\n\n        if(requests[_requester].exists != true) {\n            revert(\"Unknown address in requester list\");\n        }\n        \n        if(_decision == true){\n            requests[_requester].acceptedcount ++;\n        } else {\n            requests[_requester].rejectedcount ++;\n        }\n\n        emit VotedForNewMember(msg.sender, _requester, _decision);\n\n        // todo check if quorum is reached and add or remove membership\n\n        return _decision;\n    }\n\n    // Only organization members or owners can view others members\n    function isAddressAlowed(address _address) public view returns (bool) {\n        if(members[_address].exists == true || _address == owner) {\n            return true;\n        } else {\n            return false;\n        }\n    }\n\n    // Returns member informations\n    function getMember(address _address) public view returns (address, string memory, string memory, uint, uint) {\n        require(isAddressAlowed(msg.sender), \"Address not allowed\");\n        require(members[_address].exists == true, \"User not found.\");\n\n        return (_address, members[_address].firstName, members[_address].lastName, members[_address].availableTokens, members[_address].id);\n    }\n\n    // Return member list\n    function getMemberList() public view returns (address[] memory) {\n        require(isAddressAlowed(msg.sender), \"Address not allowed\");\n        return membersAddress;\n    }\n\n    // Returns members count\n    function getMembersCount() public view returns(uint) {\n        return membersAddress.length;\n    }\n\n\n}\n",
  "sourcePath": "/home/bruce/git/crypto-lyon/smart-asso/contracts/contracts/Organization.sol",
  "compiler": {
    "name": "solc",
    "version": "0.5.0+commit.1d4f565a.Linux.g++"
  },
  "schemaVersion": "3.0.2",
  "updatedAt": "2019-03-16T00:49:49.424Z",
  "devdoc": {
    "methods": {}
  },
  "userdoc": {
    "methods": {}
  }
}